{
    "_format": "hh-sol-artifact-1",
    "contractName": "SignUpToken",
    "sourceName": "contracts/SignUpToken.sol",
    "abi": [
        {
            "inputs": [],
            "stateMutability": "nonpayable",
            "type": "constructor"
        },
        {
            "anonymous": false,
            "inputs": [
                {
                    "indexed": true,
                    "internalType": "address",
                    "name": "owner",
                    "type": "address"
                },
                {
                    "indexed": true,
                    "internalType": "address",
                    "name": "approved",
                    "type": "address"
                },
                {
                    "indexed": true,
                    "internalType": "uint256",
                    "name": "tokenId",
                    "type": "uint256"
                }
            ],
            "name": "Approval",
            "type": "event"
        },
        {
            "anonymous": false,
            "inputs": [
                {
                    "indexed": true,
                    "internalType": "address",
                    "name": "owner",
                    "type": "address"
                },
                {
                    "indexed": true,
                    "internalType": "address",
                    "name": "operator",
                    "type": "address"
                },
                {
                    "indexed": false,
                    "internalType": "bool",
                    "name": "approved",
                    "type": "bool"
                }
            ],
            "name": "ApprovalForAll",
            "type": "event"
        },
        {
            "anonymous": false,
            "inputs": [
                {
                    "indexed": true,
                    "internalType": "address",
                    "name": "previousOwner",
                    "type": "address"
                },
                {
                    "indexed": true,
                    "internalType": "address",
                    "name": "newOwner",
                    "type": "address"
                }
            ],
            "name": "OwnershipTransferred",
            "type": "event"
        },
        {
            "anonymous": false,
            "inputs": [
                {
                    "indexed": true,
                    "internalType": "address",
                    "name": "from",
                    "type": "address"
                },
                {
                    "indexed": true,
                    "internalType": "address",
                    "name": "to",
                    "type": "address"
                },
                {
                    "indexed": true,
                    "internalType": "uint256",
                    "name": "tokenId",
                    "type": "uint256"
                }
            ],
            "name": "Transfer",
            "type": "event"
        },
        {
            "inputs": [
                {
                    "internalType": "address",
                    "name": "to",
                    "type": "address"
                },
                {
                    "internalType": "uint256",
                    "name": "tokenId",
                    "type": "uint256"
                }
            ],
            "name": "approve",
            "outputs": [],
            "stateMutability": "nonpayable",
            "type": "function"
        },
        {
            "inputs": [
                {
                    "internalType": "address",
                    "name": "owner",
                    "type": "address"
                }
            ],
            "name": "balanceOf",
            "outputs": [
                {
                    "internalType": "uint256",
                    "name": "",
                    "type": "uint256"
                }
            ],
            "stateMutability": "view",
            "type": "function"
        },
        {
            "inputs": [
                {
                    "internalType": "uint256",
                    "name": "tokenId",
                    "type": "uint256"
                }
            ],
            "name": "getApproved",
            "outputs": [
                {
                    "internalType": "address",
                    "name": "",
                    "type": "address"
                }
            ],
            "stateMutability": "view",
            "type": "function"
        },
        {
            "inputs": [
                {
                    "internalType": "address",
                    "name": "to",
                    "type": "address"
                },
                {
                    "internalType": "uint256",
                    "name": "curTokenId",
                    "type": "uint256"
                }
            ],
            "name": "giveToken",
            "outputs": [],
            "stateMutability": "nonpayable",
            "type": "function"
        },
        {
            "inputs": [
                {
                    "internalType": "address",
                    "name": "owner",
                    "type": "address"
                },
                {
                    "internalType": "address",
                    "name": "operator",
                    "type": "address"
                }
            ],
            "name": "isApprovedForAll",
            "outputs": [
                {
                    "internalType": "bool",
                    "name": "",
                    "type": "bool"
                }
            ],
            "stateMutability": "view",
            "type": "function"
        },
        {
            "inputs": [],
            "name": "name",
            "outputs": [
                {
                    "internalType": "string",
                    "name": "",
                    "type": "string"
                }
            ],
            "stateMutability": "view",
            "type": "function"
        },
        {
            "inputs": [],
            "name": "owner",
            "outputs": [
                {
                    "internalType": "address",
                    "name": "",
                    "type": "address"
                }
            ],
            "stateMutability": "view",
            "type": "function"
        },
        {
            "inputs": [
                {
                    "internalType": "uint256",
                    "name": "tokenId",
                    "type": "uint256"
                }
            ],
            "name": "ownerOf",
            "outputs": [
                {
                    "internalType": "address",
                    "name": "",
                    "type": "address"
                }
            ],
            "stateMutability": "view",
            "type": "function"
        },
        {
            "inputs": [],
            "name": "renounceOwnership",
            "outputs": [],
            "stateMutability": "nonpayable",
            "type": "function"
        },
        {
            "inputs": [
                {
                    "internalType": "address",
                    "name": "from",
                    "type": "address"
                },
                {
                    "internalType": "address",
                    "name": "to",
                    "type": "address"
                },
                {
                    "internalType": "uint256",
                    "name": "tokenId",
                    "type": "uint256"
                }
            ],
            "name": "safeTransferFrom",
            "outputs": [],
            "stateMutability": "nonpayable",
            "type": "function"
        },
        {
            "inputs": [
                {
                    "internalType": "address",
                    "name": "from",
                    "type": "address"
                },
                {
                    "internalType": "address",
                    "name": "to",
                    "type": "address"
                },
                {
                    "internalType": "uint256",
                    "name": "tokenId",
                    "type": "uint256"
                },
                {
                    "internalType": "bytes",
                    "name": "data",
                    "type": "bytes"
                }
            ],
            "name": "safeTransferFrom",
            "outputs": [],
            "stateMutability": "nonpayable",
            "type": "function"
        },
        {
            "inputs": [
                {
                    "internalType": "address",
                    "name": "operator",
                    "type": "address"
                },
                {
                    "internalType": "bool",
                    "name": "approved",
                    "type": "bool"
                }
            ],
            "name": "setApprovalForAll",
            "outputs": [],
            "stateMutability": "nonpayable",
            "type": "function"
        },
        {
            "inputs": [
                {
                    "internalType": "bytes4",
                    "name": "interfaceId",
                    "type": "bytes4"
                }
            ],
            "name": "supportsInterface",
            "outputs": [
                {
                    "internalType": "bool",
                    "name": "",
                    "type": "bool"
                }
            ],
            "stateMutability": "view",
            "type": "function"
        },
        {
            "inputs": [],
            "name": "symbol",
            "outputs": [
                {
                    "internalType": "string",
                    "name": "",
                    "type": "string"
                }
            ],
            "stateMutability": "view",
            "type": "function"
        },
        {
            "inputs": [
                {
                    "internalType": "uint256",
                    "name": "tokenId",
                    "type": "uint256"
                }
            ],
            "name": "tokenURI",
            "outputs": [
                {
                    "internalType": "string",
                    "name": "",
                    "type": "string"
                }
            ],
            "stateMutability": "view",
            "type": "function"
        },
        {
            "inputs": [
                {
                    "internalType": "address",
                    "name": "from",
                    "type": "address"
                },
                {
                    "internalType": "address",
                    "name": "to",
                    "type": "address"
                },
                {
                    "internalType": "uint256",
                    "name": "tokenId",
                    "type": "uint256"
                }
            ],
            "name": "transferFrom",
            "outputs": [],
            "stateMutability": "nonpayable",
            "type": "function"
        },
        {
            "inputs": [
                {
                    "internalType": "address",
                    "name": "newOwner",
                    "type": "address"
                }
            ],
            "name": "transferOwnership",
            "outputs": [],
            "stateMutability": "nonpayable",
            "type": "function"
        }
    ],
    "bytecode": "0x60806040523480156200001157600080fd5b50604080518082018252600b8082526a29b4b3b72ab82a37b5b2b760a91b6020808401828152855180870190965292855284015281519192916200005891600091620000e7565b5080516200006e906001906020840190620000e7565b5050506200008b620000856200009160201b60201c565b62000095565b620001ca565b3390565b600680546001600160a01b038381166001600160a01b0319831681179093556040519116919082907f8be0079c531659141344cd1fd0a4f28419497f9722a3daafe3b4186f6b6457e090600090a35050565b828054620000f5906200018d565b90600052602060002090601f01602090048101928262000119576000855562000164565b82601f106200013457805160ff191683800117855562000164565b8280016001018555821562000164579182015b828111156200016457825182559160200191906001019062000147565b506200017292915062000176565b5090565b5b8082111562000172576000815560010162000177565b600181811c90821680620001a257607f821691505b60208210811415620001c457634e487b7160e01b600052602260045260246000fd5b50919050565b61149f80620001da6000396000f3fe608060405234801561001057600080fd5b50600436106100eb5760003560e01c806370a082311161009257806370a08231146101b9578063715018a6146101da5780638da5cb5b146101e257806395d89b41146101f3578063a22cb465146101fb578063b88d4fde1461020e578063c87b56dd14610221578063e985e9c514610234578063f2fde38b1461024757600080fd5b806301ffc9a7146100f057806306fdde0314610118578063081812fc1461012d578063095ea7b314610158578063193f974c1461016d57806323b872dd1461018057806342842e0e146101935780636352211e146101a6575b600080fd5b6101036100fe366004610f74565b61025a565b60405190151581526020015b60405180910390f35b6101206102ac565b60405161010f9190610fe9565b61014061013b366004610ffc565b61033e565b6040516001600160a01b03909116815260200161010f565b61016b610166366004611031565b610365565b005b61016b61017b366004611031565b610480565b61016b61018e36600461105b565b610496565b61016b6101a136600461105b565b6104c7565b6101406101b4366004610ffc565b6104e2565b6101cc6101c7366004611097565b610517565b60405190815260200161010f565b61016b61059d565b6006546001600160a01b0316610140565b6101206105b1565b61016b6102093660046110b2565b6105c0565b61016b61021c366004611104565b6105cb565b61012061022f366004610ffc565b610603565b6101036102423660046111e0565b610677565b61016b610255366004611097565b6106a5565b60006001600160e01b031982166380ac58cd60e01b148061028b57506001600160e01b03198216635b5e139f60e01b145b806102a657506301ffc9a760e01b6001600160e01b03198316145b92915050565b6060600080546102bb90611213565b80601f01602080910402602001604051908101604052809291908181526020018280546102e790611213565b80156103345780601f1061030957610100808354040283529160200191610334565b820191906000526020600020905b81548152906001019060200180831161031757829003601f168201915b5050505050905090565b60006103498261071e565b506000908152600460205260409020546001600160a01b031690565b6000610370826104e2565b9050806001600160a01b0316836001600160a01b031614156103e35760405162461bcd60e51b815260206004820152602160248201527f4552433732313a20617070726f76616c20746f2063757272656e74206f776e656044820152603960f91b60648201526084015b60405180910390fd5b336001600160a01b03821614806103ff57506103ff8133610677565b6104715760405162461bcd60e51b815260206004820152603d60248201527f4552433732313a20617070726f76652063616c6c6572206973206e6f7420746f60448201527f6b656e206f776e6572206f7220617070726f76656420666f7220616c6c00000060648201526084016103da565b61047b8383610743565b505050565b6104886107b1565b610492828261080b565b5050565b6104a03382610926565b6104bc5760405162461bcd60e51b81526004016103da9061124e565b61047b838383610985565b61047b838383604051806020016040528060008152506105cb565b6000818152600260205260408120546001600160a01b0316806102a65760405162461bcd60e51b81526004016103da9061129b565b60006001600160a01b0382166105815760405162461bcd60e51b815260206004820152602960248201527f4552433732313a2061646472657373207a65726f206973206e6f7420612076616044820152683634b21037bbb732b960b91b60648201526084016103da565b506001600160a01b031660009081526003602052604090205490565b6105a56107b1565b6105af6000610af6565b565b6060600180546102bb90611213565b610492338383610b48565b6105d53383610926565b6105f15760405162461bcd60e51b81526004016103da9061124e565b6105fd84848484610c13565b50505050565b606061060e8261071e565b600061062560408051602081019091526000815290565b905060008151116106455760405180602001604052806000815250610670565b8061064f84610c46565b6040516020016106609291906112cd565b6040516020818303038152906040525b9392505050565b6001600160a01b03918216600090815260056020908152604080832093909416825291909152205460ff1690565b6106ad6107b1565b6001600160a01b0381166107125760405162461bcd60e51b815260206004820152602660248201527f4f776e61626c653a206e6577206f776e657220697320746865207a65726f206160448201526564647265737360d01b60648201526084016103da565b61071b81610af6565b50565b61072781610ce3565b61071b5760405162461bcd60e51b81526004016103da9061129b565b600081815260046020526040902080546001600160a01b0319166001600160a01b0384169081179091558190610778826104e2565b6001600160a01b03167f8c5be1e5ebec7d5bd14f71427d1e84f3dd0314c0f7b2291e5b200ac8c7c3b92560405160405180910390a45050565b6006546001600160a01b031633146105af5760405162461bcd60e51b815260206004820181905260248201527f4f776e61626c653a2063616c6c6572206973206e6f7420746865206f776e657260448201526064016103da565b6001600160a01b0382166108615760405162461bcd60e51b815260206004820181905260248201527f4552433732313a206d696e7420746f20746865207a65726f206164647265737360448201526064016103da565b61086a81610ce3565b156108875760405162461bcd60e51b81526004016103da906112fc565b610895600083836001610d00565b61089e81610ce3565b156108bb5760405162461bcd60e51b81526004016103da906112fc565b6001600160a01b038216600081815260036020908152604080832080546001019055848352600290915280822080546001600160a01b0319168417905551839291907fddf252ad1be2c89b69c2b068fc378daa952ba7f163c4a11628f55a4df523b3ef908290a45050565b600080610932836104e2565b9050806001600160a01b0316846001600160a01b0316148061095957506109598185610677565b8061097d5750836001600160a01b03166109728461033e565b6001600160a01b0316145b949350505050565b826001600160a01b0316610998826104e2565b6001600160a01b0316146109be5760405162461bcd60e51b81526004016103da90611333565b6001600160a01b038216610a205760405162461bcd60e51b8152602060048201526024808201527f4552433732313a207472616e7366657220746f20746865207a65726f206164646044820152637265737360e01b60648201526084016103da565b610a2d8383836001610d00565b826001600160a01b0316610a40826104e2565b6001600160a01b031614610a665760405162461bcd60e51b81526004016103da90611333565b600081815260046020908152604080832080546001600160a01b03199081169091556001600160a01b0387811680865260038552838620805460001901905590871680865283862080546001019055868652600290945282852080549092168417909155905184937fddf252ad1be2c89b69c2b068fc378daa952ba7f163c4a11628f55a4df523b3ef91a4505050565b600680546001600160a01b038381166001600160a01b0319831681179093556040519116919082907f8be0079c531659141344cd1fd0a4f28419497f9722a3daafe3b4186f6b6457e090600090a35050565b816001600160a01b0316836001600160a01b03161415610ba65760405162461bcd60e51b815260206004820152601960248201527822a9219b99189d1030b8383937bb32903a379031b0b63632b960391b60448201526064016103da565b6001600160a01b03838116600081815260056020908152604080832094871680845294825291829020805460ff191686151590811790915591519182527f17307eab39ab6107e8899845ad3d59bd9653f200f220920489ca2b5937696c31910160405180910390a3505050565b610c1e848484610985565b610c2a84848484610d88565b6105fd5760405162461bcd60e51b81526004016103da90611378565b60606000610c5383610e86565b600101905060008167ffffffffffffffff811115610c7357610c736110ee565b6040519080825280601f01601f191660200182016040528015610c9d576020820181803683370190505b5090508181016020015b600019016f181899199a1a9b1b9c1cb0b131b232b360811b600a86061a8153600a8504945084610cd657610cdb565b610ca7565b509392505050565b6000908152600260205260409020546001600160a01b0316151590565b60018111156105fd576001600160a01b03841615610d46576001600160a01b03841660009081526003602052604081208054839290610d409084906113e0565b90915550505b6001600160a01b038316156105fd576001600160a01b03831660009081526003602052604081208054839290610d7d9084906113f7565b909155505050505050565b60006001600160a01b0384163b15610e7b57604051630a85bd0160e11b81526001600160a01b0385169063150b7a0290610dcc90339089908890889060040161140f565b6020604051808303816000875af1925050508015610e07575060408051601f3d908101601f19168201909252610e049181019061144c565b60015b610e61573d808015610e35576040519150601f19603f3d011682016040523d82523d6000602084013e610e3a565b606091505b508051610e595760405162461bcd60e51b81526004016103da90611378565b805181602001fd5b6001600160e01b031916630a85bd0160e11b14905061097d565b506001949350505050565b60008072184f03e93ff9f4daa797ed6e38ed64bf6a1f0160401b8310610ec55772184f03e93ff9f4daa797ed6e38ed64bf6a1f0160401b830492506040015b6d04ee2d6d415b85acef81000000008310610ef1576d04ee2d6d415b85acef8100000000830492506020015b662386f26fc100008310610f0f57662386f26fc10000830492506010015b6305f5e1008310610f27576305f5e100830492506008015b6127108310610f3b57612710830492506004015b60648310610f4d576064830492506002015b600a83106102a65760010192915050565b6001600160e01b03198116811461071b57600080fd5b600060208284031215610f8657600080fd5b813561067081610f5e565b60005b83811015610fac578181015183820152602001610f94565b838111156105fd5750506000910152565b60008151808452610fd5816020860160208601610f91565b601f01601f19169290920160200192915050565b6020815260006106706020830184610fbd565b60006020828403121561100e57600080fd5b5035919050565b80356001600160a01b038116811461102c57600080fd5b919050565b6000806040838503121561104457600080fd5b61104d83611015565b946020939093013593505050565b60008060006060848603121561107057600080fd5b61107984611015565b925061108760208501611015565b9150604084013590509250925092565b6000602082840312156110a957600080fd5b61067082611015565b600080604083850312156110c557600080fd5b6110ce83611015565b9150602083013580151581146110e357600080fd5b809150509250929050565b634e487b7160e01b600052604160045260246000fd5b6000806000806080858703121561111a57600080fd5b61112385611015565b935061113160208601611015565b925060408501359150606085013567ffffffffffffffff8082111561115557600080fd5b818701915087601f83011261116957600080fd5b81358181111561117b5761117b6110ee565b604051601f8201601f19908116603f011681019083821181831017156111a3576111a36110ee565b816040528281528a60208487010111156111bc57600080fd5b82602086016020830137600060208483010152809550505050505092959194509250565b600080604083850312156111f357600080fd5b6111fc83611015565b915061120a60208401611015565b90509250929050565b600181811c9082168061122757607f821691505b6020821081141561124857634e487b7160e01b600052602260045260246000fd5b50919050565b6020808252602d908201527f4552433732313a2063616c6c6572206973206e6f7420746f6b656e206f776e6560408201526c1c881bdc88185c1c1c9bdd9959609a1b606082015260800190565b602080825260189082015277115490cdcc8c4e881a5b9d985b1a59081d1bdad95b88125160421b604082015260600190565b600083516112df818460208801610f91565b8351908301906112f3818360208801610f91565b01949350505050565b6020808252601c908201527f4552433732313a20746f6b656e20616c7265616479206d696e74656400000000604082015260600190565b60208082526025908201527f4552433732313a207472616e736665722066726f6d20696e636f72726563742060408201526437bbb732b960d91b606082015260800190565b60208082526032908201527f4552433732313a207472616e7366657220746f206e6f6e20455243373231526560408201527131b2b4bb32b91034b6b83632b6b2b73a32b960711b606082015260800190565b634e487b7160e01b600052601160045260246000fd5b6000828210156113f2576113f26113ca565b500390565b6000821982111561140a5761140a6113ca565b500190565b6001600160a01b038581168252841660208201526040810183905260806060820181905260009061144290830184610fbd565b9695505050505050565b60006020828403121561145e57600080fd5b815161067081610f5e56fea26469706673582212202a4fae97c602ad084610788782dd34455a7ab50a27c9e3906278170614d839e464736f6c634300080a0033",
    "linkReferences": {},
    "deployedLinkReferences": {}
}