{
  "_format": "hh-sol-artifact-1",
  "contractName": "MACI",
  "sourceName": "contracts/MACI.sol",
  "abi": [
    {
      "inputs": [
        {
          "internalType": "contract PollFactory",
          "name": "_pollFactory",
          "type": "address"
        },
        {
          "internalType": "contract SignUpGatekeeper",
          "name": "_signUpGatekeeper",
          "type": "address"
        },
        {
          "internalType": "contract InitialVoiceCreditProxy",
          "name": "_initialVoiceCreditProxy",
          "type": "address"
        }
      ],
      "stateMutability": "nonpayable",
      "type": "constructor"
    },
    {
      "anonymous": false,
      "inputs": [
        {
          "indexed": false,
          "internalType": "uint256",
          "name": "_pollId",
          "type": "uint256"
        },
        {
          "indexed": false,
          "internalType": "address",
          "name": "_pollAddr",
          "type": "address"
        },
        {
          "components": [
            {
              "internalType": "uint256",
              "name": "x",
              "type": "uint256"
            },
            {
              "internalType": "uint256",
              "name": "y",
              "type": "uint256"
            }
          ],
          "indexed": false,
          "internalType": "struct IPubKey.PubKey",
          "name": "_pubKey",
          "type": "tuple"
        }
      ],
      "name": "DeployPoll",
      "type": "event"
    },
    {
      "anonymous": false,
      "inputs": [
        {
          "indexed": false,
          "internalType": "contract VkRegistry",
          "name": "_vkRegistry",
          "type": "address"
        },
        {
          "indexed": false,
          "internalType": "contract MessageAqFactory",
          "name": "_messageAqFactory",
          "type": "address"
        }
      ],
      "name": "Init",
      "type": "event"
    },
    {
      "anonymous": false,
      "inputs": [
        {
          "indexed": false,
          "internalType": "uint256",
          "name": "_pollId",
          "type": "uint256"
        }
      ],
      "name": "MergeStateAq",
      "type": "event"
    },
    {
      "anonymous": false,
      "inputs": [
        {
          "indexed": false,
          "internalType": "uint256",
          "name": "_pollId",
          "type": "uint256"
        },
        {
          "indexed": false,
          "internalType": "uint256",
          "name": "_numSrQueueOps",
          "type": "uint256"
        }
      ],
      "name": "MergeStateAqSubRoots",
      "type": "event"
    },
    {
      "anonymous": false,
      "inputs": [
        {
          "indexed": true,
          "internalType": "address",
          "name": "previousOwner",
          "type": "address"
        },
        {
          "indexed": true,
          "internalType": "address",
          "name": "newOwner",
          "type": "address"
        }
      ],
      "name": "OwnershipTransferred",
      "type": "event"
    },
    {
      "anonymous": false,
      "inputs": [
        {
          "indexed": false,
          "internalType": "uint256",
          "name": "_stateIndex",
          "type": "uint256"
        },
        {
          "components": [
            {
              "internalType": "uint256",
              "name": "x",
              "type": "uint256"
            },
            {
              "internalType": "uint256",
              "name": "y",
              "type": "uint256"
            }
          ],
          "indexed": false,
          "internalType": "struct IPubKey.PubKey",
          "name": "_userPubKey",
          "type": "tuple"
        },
        {
          "indexed": false,
          "internalType": "uint256",
          "name": "_voiceCreditBalance",
          "type": "uint256"
        },
        {
          "indexed": false,
          "internalType": "uint256",
          "name": "_timestamp",
          "type": "uint256"
        }
      ],
      "name": "SignUp",
      "type": "event"
    },
    {
      "inputs": [
        {
          "internalType": "uint256",
          "name": "_duration",
          "type": "uint256"
        },
        {
          "components": [
            {
              "internalType": "uint256",
              "name": "maxMessages",
              "type": "uint256"
            },
            {
              "internalType": "uint256",
              "name": "maxVoteOptions",
              "type": "uint256"
            }
          ],
          "internalType": "struct Params.MaxValues",
          "name": "_maxValues",
          "type": "tuple"
        },
        {
          "components": [
            {
              "internalType": "uint8",
              "name": "intStateTreeDepth",
              "type": "uint8"
            },
            {
              "internalType": "uint8",
              "name": "messageTreeSubDepth",
              "type": "uint8"
            },
            {
              "internalType": "uint8",
              "name": "messageTreeDepth",
              "type": "uint8"
            },
            {
              "internalType": "uint8",
              "name": "voteOptionTreeDepth",
              "type": "uint8"
            }
          ],
          "internalType": "struct Params.TreeDepths",
          "name": "_treeDepths",
          "type": "tuple"
        },
        {
          "components": [
            {
              "internalType": "uint256",
              "name": "x",
              "type": "uint256"
            },
            {
              "internalType": "uint256",
              "name": "y",
              "type": "uint256"
            }
          ],
          "internalType": "struct IPubKey.PubKey",
          "name": "_coordinatorPubKey",
          "type": "tuple"
        }
      ],
      "name": "deployPoll",
      "outputs": [],
      "stateMutability": "nonpayable",
      "type": "function"
    },
    {
      "inputs": [
        {
          "internalType": "uint256",
          "name": "_pollId",
          "type": "uint256"
        }
      ],
      "name": "getPoll",
      "outputs": [
        {
          "internalType": "contract Poll",
          "name": "",
          "type": "address"
        }
      ],
      "stateMutability": "view",
      "type": "function"
    },
    {
      "inputs": [],
      "name": "getStateAqRoot",
      "outputs": [
        {
          "internalType": "uint256",
          "name": "",
          "type": "uint256"
        }
      ],
      "stateMutability": "view",
      "type": "function"
    },
    {
      "inputs": [
        {
          "internalType": "uint256[2]",
          "name": "array",
          "type": "uint256[2]"
        }
      ],
      "name": "hash2",
      "outputs": [
        {
          "internalType": "uint256",
          "name": "",
          "type": "uint256"
        }
      ],
      "stateMutability": "pure",
      "type": "function"
    },
    {
      "inputs": [
        {
          "internalType": "uint256[3]",
          "name": "array",
          "type": "uint256[3]"
        }
      ],
      "name": "hash3",
      "outputs": [
        {
          "internalType": "uint256",
          "name": "",
          "type": "uint256"
        }
      ],
      "stateMutability": "pure",
      "type": "function"
    },
    {
      "inputs": [
        {
          "internalType": "uint256[4]",
          "name": "array",
          "type": "uint256[4]"
        }
      ],
      "name": "hash4",
      "outputs": [
        {
          "internalType": "uint256",
          "name": "",
          "type": "uint256"
        }
      ],
      "stateMutability": "pure",
      "type": "function"
    },
    {
      "inputs": [
        {
          "internalType": "uint256[5]",
          "name": "array",
          "type": "uint256[5]"
        }
      ],
      "name": "hash5",
      "outputs": [
        {
          "internalType": "uint256",
          "name": "",
          "type": "uint256"
        }
      ],
      "stateMutability": "pure",
      "type": "function"
    },
    {
      "inputs": [
        {
          "internalType": "uint256",
          "name": "_left",
          "type": "uint256"
        },
        {
          "internalType": "uint256",
          "name": "_right",
          "type": "uint256"
        }
      ],
      "name": "hashLeftRight",
      "outputs": [
        {
          "internalType": "uint256",
          "name": "",
          "type": "uint256"
        }
      ],
      "stateMutability": "pure",
      "type": "function"
    },
    {
      "inputs": [
        {
          "components": [
            {
              "components": [
                {
                  "internalType": "uint256",
                  "name": "x",
                  "type": "uint256"
                },
                {
                  "internalType": "uint256",
                  "name": "y",
                  "type": "uint256"
                }
              ],
              "internalType": "struct IPubKey.PubKey",
              "name": "pubKey",
              "type": "tuple"
            },
            {
              "internalType": "uint256",
              "name": "voiceCreditBalance",
              "type": "uint256"
            },
            {
              "internalType": "uint256",
              "name": "timestamp",
              "type": "uint256"
            }
          ],
          "internalType": "struct DomainObjs.StateLeaf",
          "name": "_stateLeaf",
          "type": "tuple"
        }
      ],
      "name": "hashStateLeaf",
      "outputs": [
        {
          "internalType": "uint256",
          "name": "",
          "type": "uint256"
        }
      ],
      "stateMutability": "pure",
      "type": "function"
    },
    {
      "inputs": [
        {
          "internalType": "contract VkRegistry",
          "name": "_vkRegistry",
          "type": "address"
        },
        {
          "internalType": "contract MessageAqFactory",
          "name": "_messageAqFactory",
          "type": "address"
        },
        {
          "internalType": "contract TopupCredit",
          "name": "_topupCredit",
          "type": "address"
        }
      ],
      "name": "init",
      "outputs": [],
      "stateMutability": "nonpayable",
      "type": "function"
    },
    {
      "inputs": [],
      "name": "initialVoiceCreditProxy",
      "outputs": [
        {
          "internalType": "contract InitialVoiceCreditProxy",
          "name": "",
          "type": "address"
        }
      ],
      "stateMutability": "view",
      "type": "function"
    },
    {
      "inputs": [],
      "name": "isInitialised",
      "outputs": [
        {
          "internalType": "bool",
          "name": "",
          "type": "bool"
        }
      ],
      "stateMutability": "view",
      "type": "function"
    },
    {
      "inputs": [
        {
          "internalType": "uint256",
          "name": "_pollId",
          "type": "uint256"
        }
      ],
      "name": "mergeStateAq",
      "outputs": [
        {
          "internalType": "uint256",
          "name": "",
          "type": "uint256"
        }
      ],
      "stateMutability": "nonpayable",
      "type": "function"
    },
    {
      "inputs": [
        {
          "internalType": "uint256",
          "name": "_numSrQueueOps",
          "type": "uint256"
        },
        {
          "internalType": "uint256",
          "name": "_pollId",
          "type": "uint256"
        }
      ],
      "name": "mergeStateAqSubRoots",
      "outputs": [],
      "stateMutability": "nonpayable",
      "type": "function"
    },
    {
      "inputs": [],
      "name": "messageAqFactory",
      "outputs": [
        {
          "internalType": "contract MessageAqFactory",
          "name": "",
          "type": "address"
        }
      ],
      "stateMutability": "view",
      "type": "function"
    },
    {
      "inputs": [],
      "name": "nextPollId",
      "outputs": [
        {
          "internalType": "uint256",
          "name": "",
          "type": "uint256"
        }
      ],
      "stateMutability": "view",
      "type": "function"
    },
    {
      "inputs": [],
      "name": "numSignUps",
      "outputs": [
        {
          "internalType": "uint256",
          "name": "",
          "type": "uint256"
        }
      ],
      "stateMutability": "view",
      "type": "function"
    },
    {
      "inputs": [
        {
          "internalType": "uint256",
          "name": "",
          "type": "uint256"
        }
      ],
      "name": "numStateLeaves",
      "outputs": [
        {
          "internalType": "uint256",
          "name": "",
          "type": "uint256"
        }
      ],
      "stateMutability": "view",
      "type": "function"
    },
    {
      "inputs": [],
      "name": "owner",
      "outputs": [
        {
          "internalType": "address",
          "name": "",
          "type": "address"
        }
      ],
      "stateMutability": "view",
      "type": "function"
    },
    {
      "inputs": [],
      "name": "pollFactory",
      "outputs": [
        {
          "internalType": "contract PollFactory",
          "name": "",
          "type": "address"
        }
      ],
      "stateMutability": "view",
      "type": "function"
    },
    {
      "inputs": [
        {
          "internalType": "uint256",
          "name": "",
          "type": "uint256"
        }
      ],
      "name": "polls",
      "outputs": [
        {
          "internalType": "contract Poll",
          "name": "",
          "type": "address"
        }
      ],
      "stateMutability": "view",
      "type": "function"
    },
    {
      "inputs": [],
      "name": "renounceOwnership",
      "outputs": [],
      "stateMutability": "nonpayable",
      "type": "function"
    },
    {
      "inputs": [
        {
          "internalType": "uint256[]",
          "name": "array",
          "type": "uint256[]"
        }
      ],
      "name": "sha256Hash",
      "outputs": [
        {
          "internalType": "uint256",
          "name": "",
          "type": "uint256"
        }
      ],
      "stateMutability": "pure",
      "type": "function"
    },
    {
      "inputs": [
        {
          "components": [
            {
              "internalType": "uint256",
              "name": "x",
              "type": "uint256"
            },
            {
              "internalType": "uint256",
              "name": "y",
              "type": "uint256"
            }
          ],
          "internalType": "struct IPubKey.PubKey",
          "name": "_pubKey",
          "type": "tuple"
        },
        {
          "internalType": "bytes",
          "name": "_signUpGatekeeperData",
          "type": "bytes"
        },
        {
          "internalType": "bytes",
          "name": "_initialVoiceCreditProxyData",
          "type": "bytes"
        }
      ],
      "name": "signUp",
      "outputs": [],
      "stateMutability": "nonpayable",
      "type": "function"
    },
    {
      "inputs": [],
      "name": "signUpGatekeeper",
      "outputs": [
        {
          "internalType": "contract SignUpGatekeeper",
          "name": "",
          "type": "address"
        }
      ],
      "stateMutability": "view",
      "type": "function"
    },
    {
      "inputs": [],
      "name": "signUpTimestamp",
      "outputs": [
        {
          "internalType": "uint256",
          "name": "",
          "type": "uint256"
        }
      ],
      "stateMutability": "view",
      "type": "function"
    },
    {
      "inputs": [],
      "name": "stateAq",
      "outputs": [
        {
          "internalType": "contract AccQueue",
          "name": "",
          "type": "address"
        }
      ],
      "stateMutability": "view",
      "type": "function"
    },
    {
      "inputs": [],
      "name": "stateTreeDepth",
      "outputs": [
        {
          "internalType": "uint8",
          "name": "",
          "type": "uint8"
        }
      ],
      "stateMutability": "view",
      "type": "function"
    },
    {
      "inputs": [],
      "name": "topupCredit",
      "outputs": [
        {
          "internalType": "contract TopupCredit",
          "name": "",
          "type": "address"
        }
      ],
      "stateMutability": "view",
      "type": "function"
    },
    {
      "inputs": [
        {
          "internalType": "address",
          "name": "newOwner",
          "type": "address"
        }
      ],
      "name": "transferOwnership",
      "outputs": [],
      "stateMutability": "nonpayable",
      "type": "function"
    },
    {
      "inputs": [],
      "name": "vkRegistry",
      "outputs": [
        {
          "internalType": "contract VkRegistry",
          "name": "",
          "type": "address"
        }
      ],
      "stateMutability": "view",
      "type": "function"
    }
  ],
  "bytecode": "0x60806040523480156200001157600080fd5b506040516200498a3803806200498a8339810160408190526200003491620002e1565b6200003f33620001e4565b60026040516200004f90620002ba565b60ff9091168152602001604051809103906000f08015801562000076573d6000803e3d6000fd5b50600980546001600160a01b0319166001600160a01b03929092169182179055604051631ffc735d60e01b81527f0ef71f46e11a513c599eed9dd03576c33439bcfb1cee155316f90541e41649ba6004820152631ffc735d906024016020604051808303816000875af1158015620000f2573d6000803e3d6000fd5b505050506040513d601f19601f8201168201806040525081019062000118919062000335565b50600780546001600160a01b038086166001600160a01b031992831617909255600a8054858416908316179055600b80549284169290911691909117905542600c556040805180820190915260018082526020820152620001799062000234565b620001db5760405162461bcd60e51b815260206004820152602860248201527f4d4143493a20706f736569646f6e2068617368206c6962726172696573206e6f6044820152671d081b1a5b9ad95960c21b606482015260840160405180910390fd5b50505062000382565b600080546001600160a01b038381166001600160a01b0319831681178455604051919092169283917f8be0079c531659141344cd1fd0a4f28419497f9722a3daafe3b4186f6b6457e09190a35050565b6040516314d2f97b60e11b815260009073__$d4acaf6f169a2634c49d403ce7efde36fd$__906329a5f2f690620002709085906004016200034f565b602060405180830381865af41580156200028e573d6000803e3d6000fd5b505050506040513d601f19601f82011682018060405250810190620002b4919062000335565b92915050565b61263d806200234d83390190565b6001600160a01b0381168114620002de57600080fd5b50565b600080600060608486031215620002f757600080fd5b83516200030481620002c8565b60208501519093506200031781620002c8565b60408501519092506200032a81620002c8565b809150509250925092565b6000602082840312156200034857600080fd5b5051919050565b60408101818360005b60028110156200037957815183526020928301929091019060010162000358565b50505092915050565b611fbb80620003926000396000f3fe608060405234801561001057600080fd5b50600436106101a55760003560e01c8063603baff8116100ef578063aab4a67011610092578063aab4a6701461037b578063ac2f00741461038e578063b293a267146103b7578063b61ede7f146103ca578063bea140b3146103dd578063cfa1fa03146103f0578063dd0982a314610403578063f2fde38b1461041657600080fd5b8063603baff8146102d857806362a361bb146102eb578063652c76e4146102fe578063715018a6146103185780637d0a81c8146103205780638da5cb5b146103335780639cfced97146103445780639ed3c90c1461035757600080fd5b80632803c35c116101575780632803c35c146102485780632877e036146102685780632b786571146102705780633364120a14610279578063343393b51461028c5780633dfb88b21461029f57806358bfc379146102b25780635bb93995146102c557600080fd5b8063079410db146101aa5780630dd5a888146101da5780630f78c3f2146101ed578063122db1531461020457806313fb89321461020d578063184b9559146102205780631a8cbcaa14610235575b600080fd5b600a546101bd906001600160a01b031681565b6040516001600160a01b0390911681526020015b60405180910390f35b6006546101bd906001600160a01b031681565b6101f6600c5481565b6040519081526020016101d1565b6101f660035481565b6005546101bd906001600160a01b031681565b61023361022e366004611455565b610429565b005b6101bd6102433660046114a0565b610824565b6101f66102563660046114a0565b60046020526000908152604090205481565b6101f66108a2565b6101f660015481565b6102336102873660046115bc565b610915565b6007546101bd906001600160a01b031681565b6101f66102ad366004611630565b610c17565b6101f66102c03660046116ad565b610c98565b6101f66102d3366004611752565b610d20565b6009546101bd906001600160a01b031681565b6101f66102f9366004611774565b610d45565b610306600a81565b60405160ff90911681526020016101d1565b610233610d7f565b6101f661032e3660046117ce565b610d93565b6000546001600160a01b03166101bd565b6101f661035236600461182f565b610dd3565b60095461036b90600160a01b900460ff1681565b60405190151581526020016101d1565b600b546101bd906001600160a01b031681565b6101bd61039c3660046114a0565b6002602052600090815260409020546001600160a01b031681565b6102336103c536600461189d565b610e0d565b6008546101bd906001600160a01b031681565b6101f66103eb36600461195b565b61109e565b6102336103fe366004611752565b6110d8565b6101f66104113660046114a0565b6111ce565b6102336104243660046119b3565b6112e1565b61043161135a565b600954600160a01b900460ff161561048c5760405162461bcd60e51b8152602060048201526019602482015278135050d24e88185b1c9958591e481a5b9a5d1a585b1a5cd959603a1b60448201526064015b60405180910390fd5b6009805460ff60a01b1916600160a01b179055600580546001600160a01b038086166001600160a01b0319928316179092556008805485841690831617905560068054848416921691909117905560075460408051638da5cb5b60e01b8152905130939290921691638da5cb5b916004818101926020929091908290030181865afa15801561051f573d6000803e3d6000fd5b505050506040513d601f19601f8201168201806040525081019061054391906119d0565b6001600160a01b0316146105a95760405162461bcd60e51b815260206004820152602760248201527f4d4143493a20506f6c6c466163746f7279206f776e657220696e636f727265636044820152661d1b1e481cd95d60ca1b6064820152608401610483565b600754600854604051636a37aff960e11b81526001600160a01b03918216600482015291169063d46f5ff290602401600060405180830381600087803b1580156105f257600080fd5b505af1158015610606573d6000803e3d6000fd5b505060075460085460408051638da5cb5b60e01b815290516001600160a01b039384169550929091169250638da5cb5b9160048083019260209291908290030181865afa15801561065b573d6000803e3d6000fd5b505050506040513d601f19601f8201168201806040525081019061067f91906119d0565b6001600160a01b0316146106ea5760405162461bcd60e51b815260206004820152602c60248201527f4d4143493a204d6573736167654171466163746f7279206f776e657220696e6360448201526b1bdc9c9958dd1b1e481cd95d60a21b6064820152608401610483565b6000546001600160a01b03166001600160a01b0316600560009054906101000a90046001600160a01b03166001600160a01b0316638da5cb5b6040518163ffffffff1660e01b8152600401602060405180830381865afa158015610752573d6000803e3d6000fd5b505050506040513d601f19601f8201168201806040525081019061077691906119d0565b6001600160a01b0316146107db5760405162461bcd60e51b815260206004820152602660248201527f4d4143493a20566b5265676973747279206f776e657220696e636f72726563746044820152651b1e481cd95d60d21b6064820152608401610483565b604080516001600160a01b038086168252841660208201527f45acd56f401dc3db1d520e5e214f090b4ab3e3fbf42fd24596cb511edaad876a91015b60405180910390a1505050565b600060015482106108865760405162461bcd60e51b815260206004820152602660248201527f4d4143493a20706f6c6c2077697468205f706f6c6c496420646f6573206e6f7460448201526508195e1a5cdd60d21b6064820152608401610483565b506000908152600260205260409020546001600160a01b031690565b600954604051631b9b8aa760e01b8152600a60048201526000916001600160a01b031690631b9b8aa790602401602060405180830381865afa1580156108ec573d6000803e3d6000fd5b505050506040513d601f19601f8201168201806040525081019061091091906119ed565b905090565b600954600160a01b900460ff1661093e5760405162461bcd60e51b815260040161048390611a06565b61094a600a6005611c22565b600354106109aa5760405162461bcd60e51b815260206004820152602760248201527f4d4143493a206d6178696d756d206e756d626572206f66207369676e757073206044820152661c995858da195960ca1b6064820152608401610483565b8251600080516020611f668339815191521180156109d95750600080516020611f668339815191528360200151105b610a4b5760405162461bcd60e51b815260206004820152603f60248201527f4d4143493a205f7075624b65792076616c7565732073686f756c64206265206c60448201527f657373207468616e2074686520736e61726b207363616c6172206669656c64006064820152608401610483565b600380546001019055600a5460405163125c7dfb60e11b81526001600160a01b03909116906324b8fbf690610a869033908690600401611c5e565b600060405180830381600087803b158015610aa057600080fd5b505af1158015610ab4573d6000803e3d6000fd5b5050600b5460405163b36543a960e01b8152600093506001600160a01b03909116915063b36543a990610aed9033908690600401611c5e565b602060405180830381865afa158015610b0a573d6000803e3d6000fd5b505050506040513d601f19601f82011682018060405250810190610b2e91906119ed565b905060004290506000610b5a604051806060016040528088815260200185815260200184815250610d93565b600954604051631ffc735d60e01b8152600481018390529192506000916001600160a01b0390911690631ffc735d906024016020604051808303816000875af1158015610bab573d6000803e3d6000fd5b505050506040513d601f19601f82011682018060405250810190610bcf91906119ed565b90507f99f34e3b6821c0bd1f5732936411fe3fd65fb78cbcd657c61bfb8deb08c0591f81888686604051610c069493929190611ca0565b60405180910390a150505050505050565b60405163248f667760e01b815260009073__$584f44aaf914c42633951b34ceb432be31$__9063248f667790610c51908590600401611cd0565b602060405180830381865af4158015610c6e573d6000803e3d6000fd5b505050506040513d601f19601f82011682018060405250810190610c9291906119ed565b92915050565b6000600080516020611f66833981519152600283604051602001610cbc9190611d01565b60408051601f1981840301815290829052610cd691611d37565b602060405180830381855afa158015610cf3573d6000803e3d6000fd5b5050506040513d601f19601f82011682018060405250810190610d1691906119ed565b610c929190611d53565b6000610d2a611404565b83815260208101839052610d3d81610d45565b949350505050565b6040516314d2f97b60e11b815260009073__$d4acaf6f169a2634c49d403ce7efde36fd$__906329a5f2f690610c51908590600401611d75565b610d8761135a565b610d9160006113b4565b565b6000610d9d611422565b8251518152825160209081015181830152830151816002602002015260408301516060820152610dcc81610c17565b9392505050565b604051630926f44b60e31b815260009073__$2a5b9c44d836f7997ae51e8d308a712a39$__90634937a25890610c51908590600401611d9d565b600954600160a01b900460ff16610e365760405162461bcd60e51b815260040161048390611a06565b600180548082019091558015610f3957600960009054906101000a90046001600160a01b03166001600160a01b03166369e7c5866040518163ffffffff1660e01b8152600401602060405180830381865afa158015610e99573d6000803e3d6000fd5b505050506040513d601f19601f82011682018060405250810190610ebd9190611dc5565b610f395760405162461bcd60e51b815260206004820152604160248201527f4d4143493a2070726576696f757320706f6c6c206d75737420626520636f6d7060448201527f6c65746564206265666f7265207573696e672061206e657720696e7374616e636064820152606560f81b608482015260a401610483565b600060405180606001604052808560200151600560ff16610f5a9190611de7565b62ffffff1681528551602090910190610f74906005611de7565b62ffffff1681528551602090910190610f8e906005611de7565b62ffffff1690526007546005546006549293506000926001600160a01b03928316926355325bd4928b928b928b9289928c9291821691309116610fd96000546001600160a01b031690565b6040518a63ffffffff1660e01b8152600401610ffd99989796959493929190611dfb565b6020604051808303816000875af115801561101c573d6000803e3d6000fd5b505050506040513d601f19601f8201168201806040525081019061104091906119d0565b6000848152600260205260409081902080546001600160a01b0319166001600160a01b038416179055519091507f76b880f3c8580b5bb05765c3b2160a2860692566e7f8cce8c58d23e77f3130c290610c0690859084908890611ebf565b6040516304b98e1d60e31b815260009073__$9b3049adcf18347c4fcd511e1429cbc37d$__906325cc70e890610c51908590600401611eec565b60008181526002602052604090205481906001600160a01b031633146111105760405162461bcd60e51b815260040161048390611f14565b600954600160a01b900460ff166111395760405162461bcd60e51b815260040161048390611a06565b60095460405163c15da65b60e01b8152600481018590526001600160a01b039091169063c15da65b90602401600060405180830381600087803b15801561117f57600080fd5b505af1158015611193573d6000803e3d6000fd5b505060408051858152602081018790527fe9807dca2e13777d1fc97a0c403970f20bd5e78e84a50035d517015a8932a10c9350019050610817565b60008181526002602052604081205482906001600160a01b031633146112065760405162461bcd60e51b815260040161048390611f14565b600954600160a01b900460ff1661122f5760405162461bcd60e51b815260040161048390611a06565b6009546040516324a47aeb60e01b8152600a60048201526000916001600160a01b0316906324a47aeb906024016020604051808303816000875af115801561127b573d6000803e3d6000fd5b505050506040513d601f19601f8201168201806040525081019061129f91906119ed565b90507fa62757197c6e5a785ec97eb7bdae582c9bd5df5bc9f66566238abc8cef5a87b5846040516112d291815260200190565b60405180910390a19392505050565b6112e961135a565b6001600160a01b03811661134e5760405162461bcd60e51b815260206004820152602660248201527f4f776e61626c653a206e6577206f776e657220697320746865207a65726f206160448201526564647265737360d01b6064820152608401610483565b611357816113b4565b50565b6000546001600160a01b03163314610d915760405162461bcd60e51b815260206004820181905260248201527f4f776e61626c653a2063616c6c6572206973206e6f7420746865206f776e65726044820152606401610483565b600080546001600160a01b038381166001600160a01b0319831681178455604051919092169283917f8be0079c531659141344cd1fd0a4f28419497f9722a3daafe3b4186f6b6457e09190a35050565b60405180604001604052806002906020820280368337509192915050565b60405180608001604052806004906020820280368337509192915050565b6001600160a01b038116811461135757600080fd5b60008060006060848603121561146a57600080fd5b833561147581611440565b9250602084013561148581611440565b9150604084013561149581611440565b809150509250925092565b6000602082840312156114b257600080fd5b5035919050565b634e487b7160e01b600052604160045260246000fd5b604051601f8201601f191681016001600160401b03811182821017156114f7576114f76114b9565b604052919050565b60006040828403121561151157600080fd5b604051604081018181106001600160401b0382111715611533576115336114b9565b604052823581526020928301359281019290925250919050565b600082601f83011261155e57600080fd5b81356001600160401b03811115611577576115776114b9565b61158a601f8201601f19166020016114cf565b81815284602083860101111561159f57600080fd5b816020850160208301376000918101602001919091529392505050565b6000806000608084860312156115d157600080fd5b6115db85856114ff565b925060408401356001600160401b03808211156115f757600080fd5b6116038783880161154d565b9350606086013591508082111561161957600080fd5b506116268682870161154d565b9150509250925092565b60006080828403121561164257600080fd5b82601f83011261165157600080fd5b604051608081018181106001600160401b0382111715611673576116736114b9565b60405280608084018581111561168857600080fd5b845b818110156116a257803583526020928301920161168a565b509195945050505050565b600060208083850312156116c057600080fd5b82356001600160401b03808211156116d757600080fd5b818501915085601f8301126116eb57600080fd5b8135818111156116fd576116fd6114b9565b8060051b915061170e8483016114cf565b818152918301840191848101908884111561172857600080fd5b938501935b838510156117465784358252938501939085019061172d565b98975050505050505050565b6000806040838503121561176557600080fd5b50508035926020909101359150565b60006040828403121561178657600080fd5b82601f83011261179557600080fd5b604051604081018181106001600160401b03821117156117b7576117b76114b9565b806040525080604084018581111561168857600080fd5b6000608082840312156117e057600080fd5b604051606081018181106001600160401b0382111715611802576118026114b9565b60405261180f84846114ff565b815260408301356020820152606083013560408201528091505092915050565b600060a0828403121561184157600080fd5b82601f83011261185057600080fd5b60405160a081018181106001600160401b0382111715611872576118726114b9565b6040528060a084018581111561168857600080fd5b803560ff8116811461189857600080fd5b919050565b6000806000808486036101208112156118b557600080fd5b853594506118c687602088016114ff565b93506080605f19820112156118da57600080fd5b50604051608081018181106001600160401b03821117156118fd576118fd6114b9565b60405261190c60608701611887565b815261191a60808701611887565b602082015261192b60a08701611887565b604082015261193c60c08701611887565b606082015291506119508660e087016114ff565b905092959194509250565b60006060828403121561196d57600080fd5b82601f83011261197c57600080fd5b604051606081018181106001600160401b038211171561199e5761199e6114b9565b60405280606084018581111561168857600080fd5b6000602082840312156119c557600080fd5b8135610dcc81611440565b6000602082840312156119e257600080fd5b8151610dcc81611440565b6000602082840312156119ff57600080fd5b5051919050565b602080825260159082015274135050d24e881b9bdd081a5b9a5d1a585b1a5cd959605a1b604082015260600190565b634e487b7160e01b600052601160045260246000fd5b600181815b80851115611a86578160001904821115611a6c57611a6c611a35565b80851615611a7957918102915b93841c9390800290611a50565b509250929050565b600181815b80851115611a86578162ffffff04821115611ab057611ab0611a35565b80851615611abd57918102915b93841c9390800290611a93565b600082611ad957506001610c92565b81611ae657506000610c92565b8160018114611afc5760028114611b0657611b22565b6001915050610c92565b60ff841115611b1757611b17611a35565b50506001821b610c92565b5060208310610133831016604e8410600b8410161715611b45575081810a610c92565b611b4f8383611a4b565b8060001904821115611b6357611b63611a35565b029392505050565b600082611b7a57506001610c92565b81611b8757506000610c92565b8160018114611afc5760028114611b9d57611bcd565b60ff841115611bae57611bae611a35565b6001841b915062ffffff821115611bc757611bc7611a35565b50610c92565b5060208310610133831016604e8410600b8410161715611c03575081810a62ffffff811115611bfe57611bfe611a35565b610c92565b611c0d8383611a8e565b8062ffffff04821115611b6357611b63611a35565b6000610dcc8383611aca565b60005b83811015611c49578181015183820152602001611c31565b83811115611c58576000848401525b50505050565b60018060a01b03831681526040602082015260008251806040840152611c8b816060850160208701611c2e565b601f01601f1916919091016060019392505050565b84815260a08101611cbe602083018680518252602090810151910152565b60608201939093526080015292915050565b60808101818360005b6004811015611cf8578151835260209283019290910190600101611cd9565b50505092915050565b815160009082906020808601845b83811015611d2b57815185529382019390820190600101611d0f565b50929695505050505050565b60008251611d49818460208701611c2e565b9190910192915050565b600082611d7057634e487b7160e01b600052601260045260246000fd5b500690565b60408101818360005b6002811015611cf8578151835260209283019290910190600101611d7e565b60a08101818360005b6005811015611cf8578151835260209283019290910190600101611da6565b600060208284031215611dd757600080fd5b81518015158114610dcc57600080fd5b6000610dcc60ff841662ffffff8416611b6b565b8981526102008101611e1a602083018b80518252602090810151910152565b60ff895116606083015260ff60208a015116608083015260ff60408a01511660a083015260ff60608a01511660c0830152611e7660e0830189805162ffffff908116835260208083015182169084015260409182015116910152565b86516101408301526020909601516101608201526001600160a01b039485166101808201529284166101a08401529083166101c08301529091166101e090910152949350505050565b8381526001600160a01b038316602082015260808101610d3d604083018480518252602090810151910152565b60608101818360005b6003811015611cf8578151835260209283019290910190600101611ef5565b60208082526031908201527f4d4143493a206f6e6c79206120506f6c6c20636f6e74726163742063616e206360408201527030b636103a3434b990333ab731ba34b7b760791b60608201526080019056fe30644e72e131a029b85045b68181585d2833e84879b9709143e1f593f0000001a26469706673582212207c241eae8d1178a9cca648c5543e584012c0a88ed767ef9bf9617835d9d845fe64736f6c634300080a003360e06040523480156200001157600080fd5b506040516200263d3803806200263d8339810160408190526200003491620006d7565b80806005620000433362000687565b60008211620000a95760405162461bcd60e51b815260206004820152602760248201527f41636351756575653a205f7375624465707468206d757374206265206d6f72656044820152660207468616e20360cc1b60648201526084015b60405180910390fd5b6020821115620001135760405162461bcd60e51b815260206004820152602e60248201527f41636351756575653a206f6e6c7920737570706f72747320757020746f204d4160448201526d585f4445505448206c6576656c7360901b6064820152608401620000a0565b8060021480620001235750806005145b620001875760405162461bcd60e51b815260206004820152602d60248201527f41636351756575653a206f6e6c7920737570706f727473205f686173684c656e60448201526c677468206f662032206f72203560981b6064820152608401620000a0565b6000805460ff60a01b191660028314600160a01b02179055608082905260a0819052620001b5828262000806565b60c05250507f0ef71f46e11a513c599eed9dd03576c33439bcfb1cee155316f90541e41649ba6101725550507f0404a2ed0a1df2006441895d9a65ffffdd4968cb5f555fe72a6da7aaec83e1a0610173557f0b1c3d09dd575749a374a9dc1ee32af8c2312e24ad33a3e40fce8120b0f25fe3610174557f1f60ed72fc1915366d2e52cfc7ddc0ff854c7aee9abbc07d1ca88ada842354dc610175557f2ca1efc603fc121baf791319195ee3ab7fa075cee664d008f9ab2870f5028360610176557f2a0381fc4fb108733dfc58c355f2de753bcde61bd988eaa7d33fc967262be5ad610177557f12c6c7cce0332367373dafc95d75b98dd58980410434929dff09466a4ba262db610178557f2f212d3cc7e7334c4a10ced1be011b9cd70f73cca5522fc4137a51be8a17d18e610179557f0968ef20d515d8d743b2cf66603f8b86f3fdeee932fdc911774bb8699566e11c61017a557f2e3604981890fb676c3dac1e14c5c201573f99d1b9e67025109baf274b10e9dd61017b557f147d317fd4b7a1dd6cb961cfba444466b3c431ea638c8df74a89fc591d1a3a5161017c557f10ea2b72952b619afd5b9bc50561df8de0c6e1ba9b5ad66b179c39c420304a7561017d557f1c49f7b357d244d9144676ad23f79465ef5b88ef0f91762a3d35997688af9a5a61017e557f05ca0cfef8158efc5c4af44122e2765179b5463618d5c5ac6185c192332cade961017f557f0ae1595634e8a2e23620f33f9b2b5a23387a28f5833814646900110842f3a109610180557f08be8c2a6a099d9cdc96f9197af6ad99595d73419eb0694eaea432fa18baa203610181557f207f689ce35cf857ee6e68c42d31bb2191d1e84d7a295ccd63995ca7369d20eb610182557f2a6f6b7e4a2cd1a6466ed17debb0a27904e99adbd72be85566a87340f41efd05610183557f0f0725795350566920bbf56d3f22c4d38e832e638c9cb91811f83194e9dd74be610184557f02cd50632e5c5b00a9a93f434797725ec0f85f11ba1b6a844f0cd10c70df6392610185557f08868b85d2fa4c17eec0a7d8bca4671a00474bff80e801981437b77aa11d10b5610186557f294a84b7b46ea0a781877a2c0efd1ee56758d9ee55722721867efe53f4645286610187557f02cb8070979a018bb919f0d1a25d5ad3d5a376c4cf66f36d33434d221ca77e88610188557f05dfce8303f471d776762f2ddd37f05191b8bf5064d8d28e892cd4ec21e7aab4610189557f28a47617aa1e26bf42fd3b26e88aa717fd759bb92b22faaf5ad82090680b523161018a557f1de9253f5fa546603817abd83d1a13c8562f2bf6a0069a546fe546ca0c03c17061018b557f1cb9bd316e341b873dbbef94fd699c6e3a638451de2817db1620235db2b6c39e61018c557f0654785b2917d7c659a95738add3d8eb51cbbefc0f521c2640bc74b0fec5816261018d557f2eed74eacf5de60a758f815cb5e73015455c38408143fc25810d03e1ec9e352461018e557f16bea3363deb4753db67be8b19110b169ae39f33113a92773c41a8b025ca5a9361018f557f2b0dd3b7e0a7e234a4a1b48dd0e9083dc8bfc8cd7f72abdb93a1b8e5ef3e22ed610190557f0bc1ca795d5a059b1dc0c51f72c46f2288cb139ebf09f38ac3e8bca0485ed497610191557f249ca1610a7f80bbf422388c18ef9777fcdab26ee718e2b39e4011973a902330610192556200081b565b600080546001600160a01b038381166001600160a01b0319831681178455604051919092169283917f8be0079c531659141344cd1fd0a4f28419497f9722a3daafe3b4186f6b6457e09190a35050565b600060208284031215620006ea57600080fd5b5051919050565b634e487b7160e01b600052601160045260246000fd5b600181815b80851115620007485781600019048211156200072c576200072c620006f1565b808516156200073a57918102915b93841c93908002906200070c565b509250929050565b600082620007615750600162000800565b81620007705750600062000800565b81600181146200078957600281146200079457620007b4565b600191505062000800565b60ff841115620007a857620007a8620006f1565b50506001821b62000800565b5060208310610133831016604e8410600b8410161715620007d9575081810a62000800565b620007e5838362000707565b8060001904821115620007fc57620007fc620006f1565b0290505b92915050565b600062000814838362000750565b9392505050565b60805160a05160c051611d74620008c96000396000818161040d01528181610b9301528181610c9801528181610e570152610f57015260008181610310015281816106500152818161080701528181610d8b0152818161116f015281816112e3015261154401526000818161043a0152818161049b0152818161062601528181610dc501528181610e8d01528181610ed7015281816110e7015281816111c6015261147f0152611d746000f3fe608060405234801561001057600080fd5b506004361061014d5760003560e01c8063715018a6116100c3578063c00bdbcc1161007c578063c00bdbcc146102a5578063c15da65b146102b8578063d9c55ce1146102cb578063dda89a6e146102d3578063e93fb4d4146102dd578063f2fde38b146102f057600080fd5b8063715018a61461023057806381d6a24a1461023a5780638da5cb5b146102565780639cfced9714610271578063b6a64acd14610284578063bea140b31461029257600080fd5b80633e1a8cc1116101155780633e1a8cc1146101b957806358bfc379146101c15780635bb93995146101d45780635bf1fa4d146101e757806362a361bb146101fa57806369e7c5861461020d57600080fd5b80631b9b8aa7146101525780631ffc735d1461017857806324a47aeb1461018b5780633bfa6fce1461019e5780633dfb88b2146101a6575b600080fd5b610165610160366004611761565b610303565b6040519081526020015b60405180910390f35b610165610186366004611761565b6103bd565b610165610199366004611761565b6104ea565b6101656107f9565b6101656101b43660046117c1565b610847565b6101656108c8565b6101656101cf36600461183f565b610936565b6101656101e23660046118e5565b6109d0565b6101656101f53660046118e5565b6109f5565b610165610208366004611907565b610a9f565b61016e5461022090610100900460ff1681565b604051901515815260200161016f565b610238610ad9565b005b610170546001546040805192835260208301919091520161016f565b6000546040516001600160a01b03909116815260200161016f565b61016561027f366004611962565b610aed565b61016e546102209060ff1681565b6101656102a03660046119bb565b610b27565b6102386102b3366004611761565b610b61565b6102386102c6366004611761565b610bdd565b610238610e4d565b6101656101715481565b6101656102eb366004611761565b610f94565b6102386102fe366004611a14565b611015565b61017154600090610334837f0000000000000000000000000000000000000000000000000000000000000000611b3e565b10156103a15760405162461bcd60e51b815260206004820152603160248201527f41636351756575653a206765744d61696e526f6f743a205f6465707468206d756044820152700e6e840c4ca40d0d2ced040cadcdeeaced607b1b60648201526084015b60405180910390fd5b61014d82602181106103b5576103b5611b4a565b015492915050565b60006103c761108b565b610171546103d68360006110e5565b6103e1816001611b60565b610171556103f261014d60006116c6565b600061016f5561016e805460ff1916905561017154610432907f000000000000000000000000000000000000000000000000000000000000000090611b78565b6104e25760027f00000000000000000000000000000000000000000000000000000000000000006021811061046957610469611b4a565b600402015460018054600090815261014c602052604081209290925580549161049183611b9a565b90915550600290507f0000000000000000000000000000000000000000000000000000000000000000602181106104ca576104ca611b4a565b6004020160008091018190556104e2906086906116c6565b90505b919050565b60006104f461108b565b600082116105505760405162461bcd60e51b8152602060048201526024808201527f41636351756575653a205f6465707468206d757374206265206d6f72652074686044820152630616e20360e41b6064820152608401610398565b61016e5460ff166105c45760405162461bcd60e51b815260206004820152603860248201527f41636351756575653a207375627472656573206d757374206265206d6572676560448201527764206265666f72652063616c6c696e67206d65726765282960401b6064820152608401610398565b60208211156106245760405162461bcd60e51b815260206004820152602660248201527f41636351756575653a205f6465707468206d757374206265206c7465204d41586044820152650be888aa0a8960d31b6064820152608401610398565b7f00000000000000000000000000000000000000000000000000000000000000005b61017154610674827f0000000000000000000000000000000000000000000000000000000000000000611b3e565b1061067e57610690565b8061068881611b9a565b915050610646565b808310156106f35760405162461bcd60e51b815260206004820152602a60248201527f41636351756575653a205f6465707468206d7573742062652067746520746865604482015269040a6a4a840c8cae0e8d60b31b6064820152608401610398565b808314156107305761016f5461014d846021811061071357610713611b4a565b0155505061016e805461ff00191661010017905561016f54919050565b61016f54815b848110156107c85760006107498261124f565b600054909150600160a01b900460ff1615610781576107666116d5565b8381526020810182905261077981610a9f565b9350506107b5565b6107896116f3565b838152602081018290526040810182905260608101829052608081018290526107b181610aed565b9350505b50806107c081611b9a565b915050610736565b508061014d85602181106107de576107de611b4a565b015561016e805461ff00191661010017905591506104e59050565b600060015b60015461082b827f0000000000000000000000000000000000000000000000000000000000000000611b3e565b1061083557919050565b8061083f81611b9a565b9150506107fe565b60405163248f667760e01b815260009073__$584f44aaf914c42633951b34ceb432be31$__9063248f667790610881908590600401611bb5565b602060405180830381865af415801561089e573d6000803e3d6000fd5b505050506040513d601f19601f820116820180604052508101906108c29190611be6565b92915050565b61016e5460009060ff1661092e5760405162461bcd60e51b815260206004820152602760248201527f41636351756575653a207375627472656573206d757374206265206d657267656044820152661908199a5c9cdd60ca1b6064820152608401610398565b5061016f5490565b60007f30644e72e131a029b85045b68181585d2833e84879b9709143e1f593f000000160028360405160200161096c9190611bff565b60408051601f198184030181529082905261098691611c35565b602060405180830381855afa1580156109a3573d6000803e3d6000fd5b5050506040513d601f19601f820116820180604052508101906109c69190611be6565b6108c29190611b78565b60006109da6116d5565b838152602081018390526109ed81610a9f565b949350505050565b60006109ff6116f3565b60028460218110610a1257610a12611b4a565b6004020154815260028460218110610a2c57610a2c611b4a565b6004020160010154816001602002015260028460218110610a4f57610a4f611b4a565b6004020160020154816002602002015260028460218110610a7257610a72611b4a565b600402016003015481600360200201528281600460200201526000610a9682610aed565b95945050505050565b6040516314d2f97b60e11b815260009073__$d4acaf6f169a2634c49d403ce7efde36fd$__906329a5f2f690610881908590600401611c70565b610ae161108b565b610aeb6000611265565b565b604051630926f44b60e31b815260009073__$2a5b9c44d836f7997ae51e8d308a712a39$__90634937a25890610881908590600401611c98565b6040516304b98e1d60e31b815260009073__$9b3049adcf18347c4fcd511e1429cbc37d$__906325cc70e890610881908590600401611cc0565b610b6961108b565b60018054600090815261014c6020526040812083905581549190610b8c83611b9a565b91905055507f00000000000000000000000000000000000000000000000000000000000000006101716000828254610bc49190611b60565b9091555050600061016f555061016e805460ff19169055565b610be561108b565b61016e5460ff1615610c435760405162461bcd60e51b815260206004820152602160248201527f41636351756575653a20737562747265657320616c7265616479206d657267656044820152601960fa1b6064820152608401610398565b60006101715411610c965760405162461bcd60e51b815260206004820152601a60248201527f41636351756575653a206e6f7468696e6720746f206d657267650000000000006044820152606401610398565b7f000000000000000000000000000000000000000000000000000000000000000061017154610cc59190611b78565b15610cd257610cd2610e4d565b60015460011415610cfc57610ce76000610f94565b61016f5561016e805460ff1916600117905550565b6000610d066107f9565b610170549091506000905b600154811015610d82578315801590610d2957508382145b15610d345750505050565b610d4b610d4361017054610f94565b6000856112b5565b6101708054906000610d5c83611b9a565b91905055508180610d6c90611b9a565b9250508080610d7a90611b9a565b915050610d11565b506000610daf837f0000000000000000000000000000000000000000000000000000000000000000611b3e565b9050600154610170541415610e19576000610de97f000000000000000000000000000000000000000000000000000000000000000061124f565b6001549091505b82811015610e1657610e04826000876112b5565b80610e0e81611b9a565b915050610df0565b50505b60a78360218110610e2c57610e2c611b4a565b600402016000015461016f55505061016e805460ff19166001179055505b50565b610e5561108b565b7f000000000000000000000000000000000000000000000000000000000000000061017154610e849190611b78565b610ec957610eb17f000000000000000000000000000000000000000000000000000000000000000061124f565b600154600090815261014c6020526040902055610f3a565b610ed3600061147d565b60027f000000000000000000000000000000000000000000000000000000000000000060218110610f0657610f06611b4a565b6004020154600154600090815261014c6020526040812091909155610f2d90600290611711565b610f3a61014d60006116c6565b60006001546001610f4b9190611b60565b60018190559050610f7c7f000000000000000000000000000000000000000000000000000000000000000082611ce8565b6101715550600061016f5561016e805460ff19169055565b600081600154116110015760405162461bcd60e51b815260206004820152603160248201527f41636351756575653a205f696e646578206d75737420726566657220746f206160448201527020636f6d706c657465207375627472656560781b6064820152608401610398565b50600090815261014c602052604090205490565b61101d61108b565b6001600160a01b0381166110825760405162461bcd60e51b815260206004820152602660248201527f4f776e61626c653a206e6577206f776e657220697320746865207a65726f206160448201526564647265737360d01b6064820152608401610398565b610e4a81611265565b6000546001600160a01b03163314610aeb5760405162461bcd60e51b815260206004820181905260248201527f4f776e61626c653a2063616c6c6572206973206e6f7420746865206f776e65726044820152606401610398565b7f000000000000000000000000000000000000000000000000000000000000000081111561114f5760405162461bcd60e51b81526020600482015260176024820152761058d8d45d595d594e881a5b9d985b1a59081b195d995b604a1b6044820152606401610398565b60006086826021811061116457611164611b4a565b0154905061119360017f0000000000000000000000000000000000000000000000000000000000000000611d07565b81146112185782600283602181106111ad576111ad611b4a565b6004020182600481106111c2576111c2611b4a565b01557f0000000000000000000000000000000000000000000000000000000000000000821461121357608682602181106111fe576111fe611b4a565b01805490600061120d83611b9a565b91905055505b505050565b61122282846115e9565b92506086826021811061123757611237611b4a565b60009101558161124681611b9a565b9250505061114f565b600061017282602181106103b5576103b5611b4a565b600080546001600160a01b038381166001600160a01b0319831681178455604051919092169283917f8be0079c531659141344cd1fd0a4f28419497f9722a3daafe3b4186f6b6457e09190a35050565b808211156112c257505050565b600061012b83602181106112d8576112d8611b4a565b0154905061130760017f0000000000000000000000000000000000000000000000000000000000000000611d07565b8114611365578360a7846021811061132157611321611b4a565b60040201826004811061133657611336611b4a565b015561012b836021811061134c5761134c611b4a565b01805490600061135b83611b9a565b9190505550611477565b60008054600160a01b900460ff16156113b2576113806116d5565b60a7856021811061139357611393611b4a565b60040201548152602081018690526113aa81610a9f565b915050611447565b6113ba6116f3565b60005b838160ff1610156114215760a786602181106113db576113db611b4a565b600402018160ff16600481106113f3576113f3611b4a565b0154828260ff166005811061140a5761140a611b4a565b60200201528061141981611d1e565b9150506113bd565b508581846005811061143557611435611b4a565b602002015261144381610aed565b9150505b61012b846021811061145b5761145b611b4a565b60009101556114758161146f866001611b60565b856112b5565b505b50505050565b7f0000000000000000000000000000000000000000000000000000000000000000811015610e4a576000608682602181106114ba576114ba611b4a565b0154905080156115be5760006114ce6116f3565b60006114d98561124f565b905060005b848160ff16101561154257600286602181106114fc576114fc611b4a565b600402018160ff166004811061151457611514611b4a565b0154838260ff166005811061152b5761152b611b4a565b60200201528061153a81611d1e565b9150506114de565b7f00000000000000000000000000000000000000000000000000000000000000008160ff16101561159a5781838260ff166005811061158357611583611b4a565b60200201528061159281611d1e565b915050611542565b6115a383610aed565b93506115b9846115b4886001611b60565b6110e5565b505050505b608682602181106115d1576115d1611b4a565b6000910155816115e081611b9a565b9250505061147d565b60006115f36116f3565b6002846021811061160657611606611b4a565b600402015481526002846021811061162057611620611b4a565b600402016001015481600160200201526002846021811061164357611643611b4a565b600402016002015481600260200201526002846021811061166657611666611b4a565b60040201600301548160036020020152828160046020020152600061168a82610aed565b90506002856021811061169f5761169f611b4a565b6004020160006109ed91905060008155600101600081556001016000815560010160009055565b50610e4a906021810190611720565b60405180604001604052806002906020820280368337509192915050565b6040518060a001604052806005906020820280368337509192915050565b50610e4a906084810190611739565b5b808211156117355760008155600101611721565b5090565b8082111561173557600080825560018201819055600282018190556003820155600401611739565b60006020828403121561177357600080fd5b5035919050565b634e487b7160e01b600052604160045260246000fd5b604051601f8201601f1916810167ffffffffffffffff811182821017156117b9576117b961177a565b604052919050565b6000608082840312156117d357600080fd5b82601f8301126117e257600080fd5b6040516080810181811067ffffffffffffffff821117156118055761180561177a565b60405280608084018581111561181a57600080fd5b845b8181101561183457803583526020928301920161181c565b509195945050505050565b6000602080838503121561185257600080fd5b823567ffffffffffffffff8082111561186a57600080fd5b818501915085601f83011261187e57600080fd5b8135818111156118905761189061177a565b8060051b91506118a1848301611790565b81815291830184019184810190888411156118bb57600080fd5b938501935b838510156118d9578435825293850193908501906118c0565b98975050505050505050565b600080604083850312156118f857600080fd5b50508035926020909101359150565b60006040828403121561191957600080fd5b82601f83011261192857600080fd5b6040516040810181811067ffffffffffffffff8211171561194b5761194b61177a565b806040525080604084018581111561181a57600080fd5b600060a0828403121561197457600080fd5b82601f83011261198357600080fd5b60405160a0810181811067ffffffffffffffff821117156119a6576119a661177a565b6040528060a084018581111561181a57600080fd5b6000606082840312156119cd57600080fd5b82601f8301126119dc57600080fd5b6040516060810181811067ffffffffffffffff821117156119ff576119ff61177a565b60405280606084018581111561181a57600080fd5b600060208284031215611a2657600080fd5b81356001600160a01b0381168114611a3d57600080fd5b9392505050565b634e487b7160e01b600052601160045260246000fd5b600181815b80851115611a95578160001904821115611a7b57611a7b611a44565b80851615611a8857918102915b93841c9390800290611a5f565b509250929050565b600082611aac575060016108c2565b81611ab9575060006108c2565b8160018114611acf5760028114611ad957611af5565b60019150506108c2565b60ff841115611aea57611aea611a44565b50506001821b6108c2565b5060208310610133831016604e8410600b8410161715611b18575081810a6108c2565b611b228383611a5a565b8060001904821115611b3657611b36611a44565b029392505050565b6000611a3d8383611a9d565b634e487b7160e01b600052603260045260246000fd5b60008219821115611b7357611b73611a44565b500190565b600082611b9557634e487b7160e01b600052601260045260246000fd5b500690565b6000600019821415611bae57611bae611a44565b5060010190565b60808101818360005b6004811015611bdd578151835260209283019290910190600101611bbe565b50505092915050565b600060208284031215611bf857600080fd5b5051919050565b815160009082906020808601845b83811015611c2957815185529382019390820190600101611c0d565b50929695505050505050565b6000825160005b81811015611c565760208186018101518583015201611c3c565b81811115611c65576000828501525b509190910192915050565b60408101818360005b6002811015611bdd578151835260209283019290910190600101611c79565b60a08101818360005b6005811015611bdd578151835260209283019290910190600101611ca1565b60608101818360005b6003811015611bdd578151835260209283019290910190600101611cc9565b6000816000190483118215151615611d0257611d02611a44565b500290565b600082821015611d1957611d19611a44565b500390565b600060ff821660ff811415611d3557611d35611a44565b6001019291505056fea26469706673582212204aed924b010e1b3317855d0b3500315250b2a89357059cc9ad4c80dcd7196c3764736f6c634300080a0033",
  "linkReferences": {
    "contracts/crypto/Hasher.sol": {
      "PoseidonT3": [
        {
          "length": 20,
          "start": 582
        },
        {
          "length": 20,
          "start": 4329
        },
        {
          "length": 20,
          "start": 14023
        }
      ],
      "PoseidonT4": [
        {
          "length": 20,
          "start": 5186
        },
        {
          "length": 20,
          "start": 14159
        }
      ],
      "PoseidonT5": [
        {
          "length": 20,
          "start": 4027
        },
        {
          "length": 20,
          "start": 13423
        }
      ],
      "PoseidonT6": [
        {
          "length": 20,
          "start": 4471
        },
        {
          "length": 20,
          "start": 14101
        }
      ]
    }
  },
  "deployedLinkReferences": {
    "contracts/crypto/Hasher.sol": {
      "PoseidonT3": [
        {
          "length": 20,
          "start": 3415
        }
      ],
      "PoseidonT4": [
        {
          "length": 20,
          "start": 4272
        }
      ],
      "PoseidonT5": [
        {
          "length": 20,
          "start": 3113
        }
      ],
      "PoseidonT6": [
        {
          "length": 20,
          "start": 3557
        }
      ]
    }
  }
}