{
    "_format": "hh-sol-artifact-1",
    "contractName": "Poll",
    "sourceName": "contracts/Poll.sol",
    "abi": [
        {
            "inputs": [
                {
                    "internalType": "uint256",
                    "name": "_duration",
                    "type": "uint256"
                },
                {
                    "components": [
                        {
                            "internalType": "uint256",
                            "name": "maxMessages",
                            "type": "uint256"
                        },
                        {
                            "internalType": "uint256",
                            "name": "maxVoteOptions",
                            "type": "uint256"
                        }
                    ],
                    "internalType": "struct Params.MaxValues",
                    "name": "_maxValues",
                    "type": "tuple"
                },
                {
                    "components": [
                        {
                            "internalType": "uint8",
                            "name": "intStateTreeDepth",
                            "type": "uint8"
                        },
                        {
                            "internalType": "uint8",
                            "name": "messageTreeSubDepth",
                            "type": "uint8"
                        },
                        {
                            "internalType": "uint8",
                            "name": "messageTreeDepth",
                            "type": "uint8"
                        },
                        {
                            "internalType": "uint8",
                            "name": "voteOptionTreeDepth",
                            "type": "uint8"
                        }
                    ],
                    "internalType": "struct Params.TreeDepths",
                    "name": "_treeDepths",
                    "type": "tuple"
                },
                {
                    "components": [
                        {
                            "internalType": "uint24",
                            "name": "messageBatchSize",
                            "type": "uint24"
                        },
                        {
                            "internalType": "uint24",
                            "name": "tallyBatchSize",
                            "type": "uint24"
                        },
                        {
                            "internalType": "uint24",
                            "name": "subsidyBatchSize",
                            "type": "uint24"
                        }
                    ],
                    "internalType": "struct Params.BatchSizes",
                    "name": "_batchSizes",
                    "type": "tuple"
                },
                {
                    "components": [
                        {
                            "internalType": "uint256",
                            "name": "x",
                            "type": "uint256"
                        },
                        {
                            "internalType": "uint256",
                            "name": "y",
                            "type": "uint256"
                        }
                    ],
                    "internalType": "struct IPubKey.PubKey",
                    "name": "_coordinatorPubKey",
                    "type": "tuple"
                },
                {
                    "components": [
                        {
                            "internalType": "contract VkRegistry",
                            "name": "vkRegistry",
                            "type": "address"
                        },
                        {
                            "internalType": "contract IMACI",
                            "name": "maci",
                            "type": "address"
                        },
                        {
                            "internalType": "contract AccQueue",
                            "name": "messageAq",
                            "type": "address"
                        },
                        {
                            "internalType": "contract TopupCredit",
                            "name": "topupCredit",
                            "type": "address"
                        }
                    ],
                    "internalType": "struct PollDeploymentParams.ExtContracts",
                    "name": "_extContracts",
                    "type": "tuple"
                }
            ],
            "stateMutability": "nonpayable",
            "type": "constructor"
        },
        {
            "anonymous": false,
            "inputs": [
                {
                    "indexed": false,
                    "internalType": "uint256",
                    "name": "_stateRoot",
                    "type": "uint256"
                }
            ],
            "name": "MergeMaciStateAq",
            "type": "event"
        },
        {
            "anonymous": false,
            "inputs": [
                {
                    "indexed": false,
                    "internalType": "uint256",
                    "name": "_numSrQueueOps",
                    "type": "uint256"
                }
            ],
            "name": "MergeMaciStateAqSubRoots",
            "type": "event"
        },
        {
            "anonymous": false,
            "inputs": [
                {
                    "indexed": false,
                    "internalType": "uint256",
                    "name": "_messageRoot",
                    "type": "uint256"
                }
            ],
            "name": "MergeMessageAq",
            "type": "event"
        },
        {
            "anonymous": false,
            "inputs": [
                {
                    "indexed": false,
                    "internalType": "uint256",
                    "name": "_numSrQueueOps",
                    "type": "uint256"
                }
            ],
            "name": "MergeMessageAqSubRoots",
            "type": "event"
        },
        {
            "anonymous": false,
            "inputs": [
                {
                    "indexed": true,
                    "internalType": "address",
                    "name": "previousOwner",
                    "type": "address"
                },
                {
                    "indexed": true,
                    "internalType": "address",
                    "name": "newOwner",
                    "type": "address"
                }
            ],
            "name": "OwnershipTransferred",
            "type": "event"
        },
        {
            "anonymous": false,
            "inputs": [
                {
                    "components": [
                        {
                            "internalType": "uint256",
                            "name": "msgType",
                            "type": "uint256"
                        },
                        {
                            "internalType": "uint256[10]",
                            "name": "data",
                            "type": "uint256[10]"
                        }
                    ],
                    "indexed": false,
                    "internalType": "struct IMessage.Message",
                    "name": "_message",
                    "type": "tuple"
                },
                {
                    "components": [
                        {
                            "internalType": "uint256",
                            "name": "x",
                            "type": "uint256"
                        },
                        {
                            "internalType": "uint256",
                            "name": "y",
                            "type": "uint256"
                        }
                    ],
                    "indexed": false,
                    "internalType": "struct IPubKey.PubKey",
                    "name": "_encPubKey",
                    "type": "tuple"
                }
            ],
            "name": "PublishMessage",
            "type": "event"
        },
        {
            "anonymous": false,
            "inputs": [
                {
                    "components": [
                        {
                            "internalType": "uint256",
                            "name": "msgType",
                            "type": "uint256"
                        },
                        {
                            "internalType": "uint256[10]",
                            "name": "data",
                            "type": "uint256[10]"
                        }
                    ],
                    "indexed": false,
                    "internalType": "struct IMessage.Message",
                    "name": "_message",
                    "type": "tuple"
                }
            ],
            "name": "TopupMessage",
            "type": "event"
        },
        {
            "inputs": [
                {
                    "internalType": "uint256",
                    "name": "_messageSubRoot",
                    "type": "uint256"
                }
            ],
            "name": "batchEnqueueMessage",
            "outputs": [],
            "stateMutability": "nonpayable",
            "type": "function"
        },
        {
            "inputs": [],
            "name": "batchSizes",
            "outputs": [
                {
                    "internalType": "uint24",
                    "name": "messageBatchSize",
                    "type": "uint24"
                },
                {
                    "internalType": "uint24",
                    "name": "tallyBatchSize",
                    "type": "uint24"
                },
                {
                    "internalType": "uint24",
                    "name": "subsidyBatchSize",
                    "type": "uint24"
                }
            ],
            "stateMutability": "view",
            "type": "function"
        },
        {
            "inputs": [],
            "name": "coordinatorPubKey",
            "outputs": [
                {
                    "internalType": "uint256",
                    "name": "x",
                    "type": "uint256"
                },
                {
                    "internalType": "uint256",
                    "name": "y",
                    "type": "uint256"
                }
            ],
            "stateMutability": "view",
            "type": "function"
        },
        {
            "inputs": [],
            "name": "coordinatorPubKeyHash",
            "outputs": [
                {
                    "internalType": "uint256",
                    "name": "",
                    "type": "uint256"
                }
            ],
            "stateMutability": "view",
            "type": "function"
        },
        {
            "inputs": [],
            "name": "currentSbCommitment",
            "outputs": [
                {
                    "internalType": "uint256",
                    "name": "",
                    "type": "uint256"
                }
            ],
            "stateMutability": "view",
            "type": "function"
        },
        {
            "inputs": [],
            "name": "extContracts",
            "outputs": [
                {
                    "internalType": "contract VkRegistry",
                    "name": "vkRegistry",
                    "type": "address"
                },
                {
                    "internalType": "contract IMACI",
                    "name": "maci",
                    "type": "address"
                },
                {
                    "internalType": "contract AccQueue",
                    "name": "messageAq",
                    "type": "address"
                },
                {
                    "internalType": "contract TopupCredit",
                    "name": "topupCredit",
                    "type": "address"
                }
            ],
            "stateMutability": "view",
            "type": "function"
        },
        {
            "inputs": [],
            "name": "getDeployTimeAndDuration",
            "outputs": [
                {
                    "internalType": "uint256",
                    "name": "",
                    "type": "uint256"
                },
                {
                    "internalType": "uint256",
                    "name": "",
                    "type": "uint256"
                }
            ],
            "stateMutability": "view",
            "type": "function"
        },
        {
            "inputs": [
                {
                    "internalType": "uint256[2]",
                    "name": "array",
                    "type": "uint256[2]"
                }
            ],
            "name": "hash2",
            "outputs": [
                {
                    "internalType": "uint256",
                    "name": "",
                    "type": "uint256"
                }
            ],
            "stateMutability": "pure",
            "type": "function"
        },
        {
            "inputs": [
                {
                    "internalType": "uint256[3]",
                    "name": "array",
                    "type": "uint256[3]"
                }
            ],
            "name": "hash3",
            "outputs": [
                {
                    "internalType": "uint256",
                    "name": "",
                    "type": "uint256"
                }
            ],
            "stateMutability": "pure",
            "type": "function"
        },
        {
            "inputs": [
                {
                    "internalType": "uint256[4]",
                    "name": "array",
                    "type": "uint256[4]"
                }
            ],
            "name": "hash4",
            "outputs": [
                {
                    "internalType": "uint256",
                    "name": "",
                    "type": "uint256"
                }
            ],
            "stateMutability": "pure",
            "type": "function"
        },
        {
            "inputs": [
                {
                    "internalType": "uint256[5]",
                    "name": "array",
                    "type": "uint256[5]"
                }
            ],
            "name": "hash5",
            "outputs": [
                {
                    "internalType": "uint256",
                    "name": "",
                    "type": "uint256"
                }
            ],
            "stateMutability": "pure",
            "type": "function"
        },
        {
            "inputs": [
                {
                    "internalType": "uint256",
                    "name": "_left",
                    "type": "uint256"
                },
                {
                    "internalType": "uint256",
                    "name": "_right",
                    "type": "uint256"
                }
            ],
            "name": "hashLeftRight",
            "outputs": [
                {
                    "internalType": "uint256",
                    "name": "",
                    "type": "uint256"
                }
            ],
            "stateMutability": "pure",
            "type": "function"
        },
        {
            "inputs": [
                {
                    "components": [
                        {
                            "internalType": "uint256",
                            "name": "msgType",
                            "type": "uint256"
                        },
                        {
                            "internalType": "uint256[10]",
                            "name": "data",
                            "type": "uint256[10]"
                        }
                    ],
                    "internalType": "struct IMessage.Message",
                    "name": "_message",
                    "type": "tuple"
                },
                {
                    "components": [
                        {
                            "internalType": "uint256",
                            "name": "x",
                            "type": "uint256"
                        },
                        {
                            "internalType": "uint256",
                            "name": "y",
                            "type": "uint256"
                        }
                    ],
                    "internalType": "struct IPubKey.PubKey",
                    "name": "_encPubKey",
                    "type": "tuple"
                }
            ],
            "name": "hashMessageAndEncPubKey",
            "outputs": [
                {
                    "internalType": "uint256",
                    "name": "",
                    "type": "uint256"
                }
            ],
            "stateMutability": "pure",
            "type": "function"
        },
        {
            "inputs": [],
            "name": "init",
            "outputs": [],
            "stateMutability": "nonpayable",
            "type": "function"
        },
        {
            "inputs": [],
            "name": "maxValues",
            "outputs": [
                {
                    "internalType": "uint256",
                    "name": "maxMessages",
                    "type": "uint256"
                },
                {
                    "internalType": "uint256",
                    "name": "maxVoteOptions",
                    "type": "uint256"
                }
            ],
            "stateMutability": "view",
            "type": "function"
        },
        {
            "inputs": [
                {
                    "internalType": "uint256",
                    "name": "_pollId",
                    "type": "uint256"
                }
            ],
            "name": "mergeMaciStateAq",
            "outputs": [],
            "stateMutability": "nonpayable",
            "type": "function"
        },
        {
            "inputs": [
                {
                    "internalType": "uint256",
                    "name": "_numSrQueueOps",
                    "type": "uint256"
                },
                {
                    "internalType": "uint256",
                    "name": "_pollId",
                    "type": "uint256"
                }
            ],
            "name": "mergeMaciStateAqSubRoots",
            "outputs": [],
            "stateMutability": "nonpayable",
            "type": "function"
        },
        {
            "inputs": [],
            "name": "mergeMessageAq",
            "outputs": [],
            "stateMutability": "nonpayable",
            "type": "function"
        },
        {
            "inputs": [
                {
                    "internalType": "uint256",
                    "name": "_numSrQueueOps",
                    "type": "uint256"
                }
            ],
            "name": "mergeMessageAqSubRoots",
            "outputs": [],
            "stateMutability": "nonpayable",
            "type": "function"
        },
        {
            "inputs": [],
            "name": "mergedStateRoot",
            "outputs": [
                {
                    "internalType": "uint256",
                    "name": "",
                    "type": "uint256"
                }
            ],
            "stateMutability": "view",
            "type": "function"
        },
        {
            "inputs": [],
            "name": "numSignUpsAndMessages",
            "outputs": [
                {
                    "internalType": "uint256",
                    "name": "",
                    "type": "uint256"
                },
                {
                    "internalType": "uint256",
                    "name": "",
                    "type": "uint256"
                }
            ],
            "stateMutability": "view",
            "type": "function"
        },
        {
            "inputs": [],
            "name": "owner",
            "outputs": [
                {
                    "internalType": "address",
                    "name": "",
                    "type": "address"
                }
            ],
            "stateMutability": "view",
            "type": "function"
        },
        {
            "inputs": [
                {
                    "internalType": "uint256[2]",
                    "name": "dataToPad",
                    "type": "uint256[2]"
                },
                {
                    "internalType": "uint256",
                    "name": "msgType",
                    "type": "uint256"
                }
            ],
            "name": "padAndHashMessage",
            "outputs": [
                {
                    "components": [
                        {
                            "internalType": "uint256",
                            "name": "msgType",
                            "type": "uint256"
                        },
                        {
                            "internalType": "uint256[10]",
                            "name": "data",
                            "type": "uint256[10]"
                        }
                    ],
                    "internalType": "struct IMessage.Message",
                    "name": "",
                    "type": "tuple"
                },
                {
                    "components": [
                        {
                            "internalType": "uint256",
                            "name": "x",
                            "type": "uint256"
                        },
                        {
                            "internalType": "uint256",
                            "name": "y",
                            "type": "uint256"
                        }
                    ],
                    "internalType": "struct IPubKey.PubKey",
                    "name": "",
                    "type": "tuple"
                },
                {
                    "internalType": "uint256",
                    "name": "",
                    "type": "uint256"
                }
            ],
            "stateMutability": "pure",
            "type": "function"
        },
        {
            "inputs": [
                {
                    "components": [
                        {
                            "internalType": "uint256",
                            "name": "msgType",
                            "type": "uint256"
                        },
                        {
                            "internalType": "uint256[10]",
                            "name": "data",
                            "type": "uint256[10]"
                        }
                    ],
                    "internalType": "struct IMessage.Message",
                    "name": "_message",
                    "type": "tuple"
                },
                {
                    "components": [
                        {
                            "internalType": "uint256",
                            "name": "x",
                            "type": "uint256"
                        },
                        {
                            "internalType": "uint256",
                            "name": "y",
                            "type": "uint256"
                        }
                    ],
                    "internalType": "struct IPubKey.PubKey",
                    "name": "_encPubKey",
                    "type": "tuple"
                }
            ],
            "name": "publishMessage",
            "outputs": [],
            "stateMutability": "nonpayable",
            "type": "function"
        },
        {
            "inputs": [],
            "name": "renounceOwnership",
            "outputs": [],
            "stateMutability": "nonpayable",
            "type": "function"
        },
        {
            "inputs": [
                {
                    "internalType": "uint256[]",
                    "name": "array",
                    "type": "uint256[]"
                }
            ],
            "name": "sha256Hash",
            "outputs": [
                {
                    "internalType": "uint256",
                    "name": "",
                    "type": "uint256"
                }
            ],
            "stateMutability": "pure",
            "type": "function"
        },
        {
            "inputs": [],
            "name": "stateAqMerged",
            "outputs": [
                {
                    "internalType": "bool",
                    "name": "",
                    "type": "bool"
                }
            ],
            "stateMutability": "view",
            "type": "function"
        },
        {
            "inputs": [
                {
                    "internalType": "uint256",
                    "name": "stateIndex",
                    "type": "uint256"
                },
                {
                    "internalType": "uint256",
                    "name": "amount",
                    "type": "uint256"
                }
            ],
            "name": "topup",
            "outputs": [],
            "stateMutability": "nonpayable",
            "type": "function"
        },
        {
            "inputs": [
                {
                    "internalType": "address",
                    "name": "newOwner",
                    "type": "address"
                }
            ],
            "name": "transferOwnership",
            "outputs": [],
            "stateMutability": "nonpayable",
            "type": "function"
        },
        {
            "inputs": [],
            "name": "treeDepths",
            "outputs": [
                {
                    "internalType": "uint8",
                    "name": "intStateTreeDepth",
                    "type": "uint8"
                },
                {
                    "internalType": "uint8",
                    "name": "messageTreeSubDepth",
                    "type": "uint8"
                },
                {
                    "internalType": "uint8",
                    "name": "messageTreeDepth",
                    "type": "uint8"
                },
                {
                    "internalType": "uint8",
                    "name": "voteOptionTreeDepth",
                    "type": "uint8"
                }
            ],
            "stateMutability": "view",
            "type": "function"
        },
        {
            "inputs": [
                {
                    "internalType": "uint256",
                    "name": "_voteOptionIndex",
                    "type": "uint256"
                },
                {
                    "internalType": "uint256",
                    "name": "_spent",
                    "type": "uint256"
                },
                {
                    "internalType": "uint256[][]",
                    "name": "_spentProof",
                    "type": "uint256[][]"
                },
                {
                    "internalType": "uint256",
                    "name": "_spentSalt",
                    "type": "uint256"
                }
            ],
            "name": "verifyPerVOSpentVoiceCredits",
            "outputs": [
                {
                    "internalType": "bool",
                    "name": "",
                    "type": "bool"
                }
            ],
            "stateMutability": "view",
            "type": "function"
        },
        {
            "inputs": [
                {
                    "internalType": "uint256",
                    "name": "_totalSpent",
                    "type": "uint256"
                },
                {
                    "internalType": "uint256",
                    "name": "_totalSpentSalt",
                    "type": "uint256"
                }
            ],
            "name": "verifySpentVoiceCredits",
            "outputs": [
                {
                    "internalType": "bool",
                    "name": "",
                    "type": "bool"
                }
            ],
            "stateMutability": "view",
            "type": "function"
        },
        {
            "inputs": [
                {
                    "internalType": "uint256",
                    "name": "_voteOptionIndex",
                    "type": "uint256"
                },
                {
                    "internalType": "uint256",
                    "name": "_tallyResult",
                    "type": "uint256"
                },
                {
                    "internalType": "uint256[][]",
                    "name": "_tallyResultProof",
                    "type": "uint256[][]"
                },
                {
                    "internalType": "uint256",
                    "name": "_spentVoiceCreditsHash",
                    "type": "uint256"
                },
                {
                    "internalType": "uint256",
                    "name": "_perVOSpentVoiceCreditsHash",
                    "type": "uint256"
                },
                {
                    "internalType": "uint256",
                    "name": "_tallyCommitment",
                    "type": "uint256"
                }
            ],
            "name": "verifyTallyResult",
            "outputs": [
                {
                    "internalType": "bool",
                    "name": "",
                    "type": "bool"
                }
            ],
            "stateMutability": "view",
            "type": "function"
        }
    ],
    "bytecode": "0x60806040526006805460ff191690553480156200001b57600080fd5b50604051620028f8380380620028f88339810160408190526200003e916200052d565b620000493362000240565b7f0e8c0be063e1dee5a8a9df19f0715acdfac6b7260f41d6c3769166cac049db776001557f142181123bdf04edceb703cda229ba08b79092aad0eada9552d51966ee46229a6002557f20c99bb8b43cd63ee07ee8f33b445888ff638f67a7019b6d50036352a0e5e7bd6003557f1a999f92e772c387eb618ff2864256f26f268addaca43c88af7f8fab56ee19e76004557f0b81b4da4b6b26de7e3997b3c2eb68abb7573206ae5de5b964de736ee40022ab6005558051601480546001600160a01b03199081166001600160a01b0393841617909155602080840151601580548416918516919091179055604084015160168054841691851691909117905560608401516017805490931693169290921790558251600781905590830151600881905562000177919062000290565b600a555050600c9390935581516010556020918201516011558251601380548486015160409687015162ffffff94851665ffffffffffff1990931692909217630100000091851682021762ffffff60301b191666010000000000009490921693909302179055815160128054948401519584015160609094015160ff92831661ffff1990961695909517610100968316969096029590951763ffff00001916620100009382169390930263ff0000001916929092179190921690910217905542600b5562000653565b600080546001600160a01b038381166001600160a01b0319831681178455604051919092169283917f8be0079c531659141344cd1fd0a4f28419497f9722a3daafe3b4186f6b6457e09190a35050565b60006200029c6200033f565b83815260208101839052620002b181620002b9565b949350505050565b6040516314d2f97b60e11b815260009073__$d4acaf6f169a2634c49d403ce7efde36fd$__906329a5f2f690620002f590859060040162000606565b602060405180830381865af415801562000313573d6000803e3d6000fd5b505050506040513d601f19601f8201168201806040525081019062000339919062000639565b92915050565b60405180604001604052806002906020820280368337509192915050565b604051608081016001600160401b03811182821017156200038e57634e487b7160e01b600052604160045260246000fd5b60405290565b600060408284031215620003a757600080fd5b604080519081016001600160401b0381118282101715620003d857634e487b7160e01b600052604160045260246000fd5b604052825181526020928301519281019290925250919050565b805160ff811681146200040457600080fd5b919050565b805162ffffff811681146200040457600080fd5b6000606082840312156200043057600080fd5b604051606081016001600160401b03811182821017156200046157634e487b7160e01b600052604160045260246000fd5b604052905080620004728362000409565b8152620004826020840162000409565b6020820152620004956040840162000409565b60408201525092915050565b6001600160a01b0381168114620004b757600080fd5b50565b600060808284031215620004cd57600080fd5b620004d76200035d565b90508151620004e681620004a1565b81526020820151620004f881620004a1565b602082015260408201516200050d81620004a1565b604082015260608201516200052281620004a1565b606082015292915050565b6000806000806000808688036102008112156200054957600080fd5b875196506200055c8960208a0162000394565b95506080605f19820112156200057157600080fd5b506200057c6200035d565b6200058a60608901620003f2565b81526200059a60808901620003f2565b6020820152620005ad60a08901620003f2565b6040820152620005c060c08901620003f2565b60608201529350620005d68860e089016200041d565b9250620005e888610140890162000394565b9150620005fa886101808901620004ba565b90509295509295509295565b60408101818360005b6002811015620006305781518352602092830192909101906001016200060f565b50505092915050565b6000602082840312156200064c57600080fd5b5051919050565b61229580620006636000396000f3fe608060405234801561001057600080fd5b50600436106101ba5760003560e01c806386f3c3f7116100fa578063b5f38c811161009d578063b5f38c81146103de578063bc14ee2b146103eb578063bea140b314610444578063c17268d914610457578063d0c129f614610460578063d1f4614914610473578063e1c7392a146104c1578063f2fde38b146104c9578063fba630f2146104dc57600080fd5b806386f3c3f7146103055780638aa0ba92146103185780638da5cb5b146103215780639c9717291461033c5780639cfced971461034f578063a865cdd314610362578063ac98e5df14610375578063ae93a212146103cb57600080fd5b80633dfb88b2116101625780633dfb88b21461028b5780634909229f1461029e5780634f367f0f146102a957806354a8dac5146102b157806358bfc379146102c45780635bb93995146102d757806362a361bb146102ea578063715018a6146102fd57600080fd5b8062329f2f146101bf5780630396a0ce146101c957806304e54de8146101f157806306912d3c14610214578063167fd48314610236578063184ff47f1461025757806331e766a51461026a578063394b78a214610278575b600080fd5b6101c76104e5565b005b6010546011546101d7919082565b604080519283526020830191909152015b60405180910390f35b6102046101ff366004611b52565b610606565b60405190151581526020016101e8565b610227610222366004611c18565b610668565b6040516101e893929190611c70565b610249610244366004611c9d565b61074d565b6040519081526020016101e8565b6101c7610265366004611d58565b610828565b6007546008546101d7919082565b6101c7610286366004611c9d565b610a1c565b610249610299366004611d7a565b610bef565b600b54600c546101d7565b6101d7610c6a565b6102046102bf366004611dd2565b610cf6565b6102496102d2366004611e3d565b610d47565b6102496102e5366004611d58565b610dcf565b6102496102f8366004611e71565b610df4565b6101c7610e2e565b6101c7610313366004611d58565b610e42565b610249600a5481565b6000546040516001600160a01b0390911681526020016101e8565b6101c761034a366004611e94565b611056565b61024961035d366004611ead565b611143565b6101c7610370366004611e94565b61117d565b60125461039e9060ff808216916101008104821691620100008204811691630100000090041684565b6040805160ff958616815293851660208501529184169183019190915290911660608201526080016101e8565b6101c76103d9366004611e94565b61123d565b600d546102049060ff1681565b601454601554601654601754610411936001600160a01b03908116938116928116911684565b604080516001600160a01b03958616815293851660208501529184169183019190915290911660608201526080016101e8565b610249610452366004611f05565b6114f4565b610249600e5481565b61020461046e366004611d58565b61152e565b60135461049b9062ffffff808216916301000000810482169166010000000000009091041683565b6040805162ffffff948516815292841660208401529216918101919091526060016101e8565b6101c7611576565b6101c76104d7366004611f72565b6116ca565b61024960095481565b6104ed611743565b6000600b54426104fd9190611fa5565b9050600c548111604051806040016040528060078152602001662837b63622981960c91b8152509061054b5760405162461bcd60e51b81526004016105429190611fec565b60405180910390fd5b506016546012546040516324a47aeb60e01b81526201000090910460ff1660048201526000916001600160a01b0316906324a47aeb906024016020604051808303816000875af11580156105a3573d6000803e3d6000fd5b505050506040513d601f19601f820116820180604052508101906105c7919061201f565b90507fc5624680ab5d50c84507f9e0dc2032163de2bda906ab8a661a53dd4d43bd5dc7816040516105fa91815260200190565b60405180910390a15050565b6012546000908190610624906301000000900460ff1687878761179d565b905060006106328285610dcf565b905061063c61191c565b60095481526020810182905260006040820152610658816114f4565b600e541498975050505050505050565b61067061193a565b6040805180820190915260008082526020820152600061068e611959565b855181526020808701519082015260025b600a8110156106c95760008282600a81106106bc576106bc612038565b602002015260010161069f565b506040805180820182527f171e826ad4a870fd925e0bf0e87884e70e080879c2205ef10114f28a3b6f6dd781527f2bd407d897fbbca9f88adfd2d15252e69de8c1564eb4d3d27162e259172f1a1d6020808301919091528251808401909352878352820183905290808261073d828261074d565b9550955095505050509250925092565b6000610757611978565b602084810180515183528051820151918301919091528051604090810151908301528051606090810151908301525160809081015190820152610798611978565b6020858101805160a0908101518452815160c0015184840152815160e0015160408086019190915282516101000151606086015291516101200151608085015281519081019091528651815261081d9181016107f385611143565b815260200161080184611143565b8152602001866000015181526020018660200151815250611143565b925050505b92915050565b6000600b54426108389190611fa5565b9050600c54811060405180604001604052806007815260200166506f6c6c45303160c81b8152509061087d5760405162461bcd60e51b81526004016105429190611fec565b50601054600f54604080518082019091526007815266141bdb1b114c0d60ca1b60208201529110156108c25760405162461bcd60e51b81526004016105429190611fec565b50600f805460010190556017546040516323b872dd60e01b8152336004820152306024820152604481018490526001600160a01b03909116906323b872dd906064016020604051808303816000875af1158015610923573d6000803e3d6000fd5b505050506040513d601f19601f82011682018060405250810190610947919061204e565b50610950611996565b83815260208101839052600080610968836002610668565b601654604051631ffc735d60e01b8152600481018390529395509093506001600160a01b031691631ffc735d91506024016020604051808303816000875af11580156109b8573d6000803e3d6000fd5b505050506040513d601f19601f820116820180604052508101906109dc919061201f565b507f935afc7bb7cc33eb3e24e20dcfc75f5b21fa58e9c82cca06435238efaf9a3a5882604051610a0c9190612070565b60405180910390a1505050505050565b6000600b5442610a2c9190611fa5565b9050600c54811060405180604001604052806007815260200166506f6c6c45303160c81b81525090610a715760405162461bcd60e51b81526004016105429190611fec565b50601054600f54604080518082019091526007815266141bdb1b114c0d60ca1b6020820152911015610ab65760405162461bcd60e51b81526004016105429190611fec565b508151600080516020612240833981519152118015610ae657506000805160206122408339815191528260200151105b60405180604001604052806007815260200166506f6c6c45303360c81b81525090610b245760405162461bcd60e51b81526004016105429190611fec565b50600f8054600190810190915583526000610b3f848461074d565b601654604051631ffc735d60e01b8152600481018390529192506001600160a01b031690631ffc735d906024016020604051808303816000875af1158015610b8b573d6000803e3d6000fd5b505050506040513d601f19601f82011682018060405250810190610baf919061201f565b507fe2067f06dd7b8159b21a5490f8663f6bb031d9b35ed6d298b5489674cb9cda4b8484604051610be192919061207f565b60405180910390a150505050565b60405163248f667760e01b815260009073__$584f44aaf914c42633951b34ceb432be31$__9063248f667790610c299085906004016120a6565b602060405180830381865af4158015610c46573d6000803e3d6000fd5b505050506040513d601f19601f82011682018060405250810190610822919061201f565b6000806000601460010160009054906101000a90046001600160a01b03166001600160a01b031663122db1536040518163ffffffff1660e01b8152600401602060405180830381865afa158015610cc5573d6000803e3d6000fd5b505050506040513d601f19601f82011682018060405250810190610ce9919061201f565b600f549094909350915050565b6012546000908190610d14906301000000900460ff1689898961179d565b9050610d1e61191c565b818152602081018690526040810185905283610d39826114f4565b149998505050505050505050565b6000600080516020612240833981519152600283604051602001610d6b91906120d7565b60408051601f1981840301815290829052610d859161210d565b602060405180830381855afa158015610da2573d6000803e3d6000fd5b5050506040513d601f19601f82011682018060405250810190610dc5919061201f565b610822919061213f565b6000610dd9611996565b83815260208101839052610dec81610df4565b949350505050565b6040516314d2f97b60e11b815260009073__$d4acaf6f169a2634c49d403ce7efde36fd$__906329a5f2f690610c29908590600401612153565b610e36611743565b610e4060006118cc565b565b610e4a611743565b6000600b5442610e5a9190611fa5565b9050600c548111604051806040016040528060078152602001662837b63622981960c91b81525090610e9f5760405162461bcd60e51b81526004016105429190611fec565b50600d54604080518082019091526007815266506f6c6c45303560c81b60208201529060ff1615610ee35760405162461bcd60e51b81526004016105429190611fec565b5060155460408051630c0775ff60e31b815290516001600160a01b039092169163603baff8916004808201926020929091908290030181865afa158015610f2e573d6000803e3d6000fd5b505050506040513d601f19601f82011682018060405250810190610f52919061217b565b6001600160a01b031663b6a64acd6040518163ffffffff1660e01b8152600401602060405180830381865afa158015610f8f573d6000803e3d6000fd5b505050506040513d601f19601f82011682018060405250810190610fb3919061204e565b61101d5760155460405163cfa1fa0360e01b815260048101859052602481018490526001600160a01b039091169063cfa1fa0390604401600060405180830381600087803b15801561100457600080fd5b505af1158015611018573d6000803e3d6000fd5b505050505b6040518381527fbe5eae95ff0a9a2779506ae62da06dda1e349311d3f2b6ceb990ea42b6a5f20b906020015b60405180910390a1505050565b61105e611743565b6000600b544261106e9190611fa5565b9050600c548111604051806040016040528060078152602001662837b63622981960c91b815250906110b35760405162461bcd60e51b81526004016105429190611fec565b5060165460405163c15da65b60e01b8152600481018490526001600160a01b039091169063c15da65b90602401600060405180830381600087803b1580156110fa57600080fd5b505af115801561110e573d6000803e3d6000fd5b505050507f1245b881cb30fdad22b2f9fde2d5c2a3605bbdf272d5e8a2235d8c9e81aba2ce826040516105fa91815260200190565b604051630926f44b60e31b815260009073__$2a5b9c44d836f7997ae51e8d308a712a39$__90634937a25890610c29908590600401612198565b611185611743565b6000600b54426111959190611fa5565b9050600c548111604051806040016040528060078152602001662837b63622981960c91b815250906111da5760405162461bcd60e51b81526004016105429190611fec565b50601654604051633002f6f360e21b8152600481018490526001600160a01b039091169063c00bdbcc90602401600060405180830381600087803b15801561122157600080fd5b505af1158015611235573d6000803e3d6000fd5b505050505050565b611245611743565b6000600b54426112559190611fa5565b9050600c548111604051806040016040528060078152602001662837b63622981960c91b8152509061129a5760405162461bcd60e51b81526004016105429190611fec565b50600d54604080518082019091526007815266506f6c6c45303560c81b60208201529060ff16156112de5760405162461bcd60e51b81526004016105429190611fec565b50600d805460ff1916600117905560155460408051630c0775ff60e31b815290516001600160a01b039092169163603baff8916004808201926020929091908290030181865afa158015611336573d6000803e3d6000fd5b505050506040513d601f19601f8201168201806040525081019061135a919061217b565b6001600160a01b031663b6a64acd6040518163ffffffff1660e01b8152600401602060405180830381865afa158015611397573d6000803e3d6000fd5b505050506040513d601f19601f820116820180604052508101906113bb919061204e565b604051806040016040528060078152602001662837b63622981b60c91b815250906113f95760405162461bcd60e51b81526004016105429190611fec565b5060155460405163dd0982a360e01b8152600481018490526001600160a01b039091169063dd0982a3906024016020604051808303816000875af1158015611445573d6000803e3d6000fd5b505050506040513d601f19601f82011682018060405250810190611469919061201f565b60095561147461191c565b60095481526012546001906114949082906301000000900460ff166121c0565b60ff16600581106114a7576114a7612038565b01546020820152600060408201526114be816114f4565b600e556009546040519081527f58deecc020170648ca539f41d6d967a2d071ce17a8296866ba3b3403977fd8ec90602001611049565b6040516304b98e1d60e31b815260009073__$9b3049adcf18347c4fcd511e1429cbc37d$__906325cc70e890610c299085906004016121e3565b60008061153b8484610dcf565b6012549091506001906115599082906301000000900460ff166121c0565b60ff166005811061156c5761156c612038565b0154149392505050565b60065460ff16156115c95760405162461bcd60e51b815260206004820152601a60248201527f506f6c6c20636f6e747261637420616c726561647920696e69740000000000006044820152606401610542565b6006805460ff19166001908117909155600f805490910190556115ea611996565b7f12817f4161f2f5ded33f26c55735a77e80e4f8975483c8c2704745128417f71181526000602082018190528080611623846001610668565b601654604051631ffc735d60e01b81526004810183905293965091945092506001600160a01b031690631ffc735d906024016020604051808303816000875af1158015611674573d6000803e3d6000fd5b505050506040513d601f19601f82011682018060405250810190611698919061201f565b507fe2067f06dd7b8159b21a5490f8663f6bb031d9b35ed6d298b5489674cb9cda4b8383604051610be192919061207f565b6116d2611743565b6001600160a01b0381166117375760405162461bcd60e51b815260206004820152602660248201527f4f776e61626c653a206e6577206f776e657220697320746865207a65726f206160448201526564647265737360d01b6064820152608401610542565b611740816118cc565b50565b6000546001600160a01b03163314610e405760405162461bcd60e51b815260206004820181905260248201527f4f776e61626c653a2063616c6c6572206973206e6f7420746865206f776e65726044820152606401610542565b6000806117ab60058661213f565b90508360006117b8611978565b60005b8960ff168160ff1610156118be5760005b600560ff8216101561188857858160ff1614156118035784838260ff16600581106117f9576117f9612038565b6020020152611878565b858160ff161115611820576118196001826121c0565b9350611824565b8093505b878260ff168151811061183957611839612038565b60200260200101518460ff168151811061185557611855612038565b6020026020010151838260ff166005811061187257611872612038565b60200201525b6118818161220b565b90506117cc565b5061189460058a61222b565b98506118a160058a61213f565b94506118ac82611143565b93506118b78161220b565b90506117bb565b509198975050505050505050565b600080546001600160a01b038381166001600160a01b0319831681178455604051919092169283917f8be0079c531659141344cd1fd0a4f28419497f9722a3daafe3b4186f6b6457e09190a35050565b60405180606001604052806003906020820280368337509192915050565b604051806040016040528060008152602001611954611959565b905290565b604051806101400160405280600a906020820280368337509192915050565b6040518060a001604052806005906020820280368337509192915050565b60405180604001604052806002906020820280368337509192915050565b634e487b7160e01b600052604160045260246000fd5b604080519081016001600160401b03811182821017156119ec576119ec6119b4565b60405290565b60405161014081016001600160401b03811182821017156119ec576119ec6119b4565b604051601f8201601f191681016001600160401b0381118282101715611a3d57611a3d6119b4565b604052919050565b60006001600160401b03821115611a5e57611a5e6119b4565b5060051b60200190565b600082601f830112611a7957600080fd5b81356020611a8e611a8983611a45565b611a15565b82815260059290921b84018101918181019086841115611aad57600080fd5b8286015b84811015611ac85780358352918301918301611ab1565b509695505050505050565b600082601f830112611ae457600080fd5b81356020611af4611a8983611a45565b82815260059290921b84018101918181019086841115611b1357600080fd5b8286015b84811015611ac85780356001600160401b03811115611b365760008081fd5b611b448986838b0101611a68565b845250918301918301611b17565b60008060008060808587031215611b6857600080fd5b843593506020850135925060408501356001600160401b03811115611b8c57600080fd5b611b9887828801611ad3565b949793965093946060013593505050565b600082601f830112611bba57600080fd5b604051604081018181106001600160401b0382111715611bdc57611bdc6119b4565b8060405250806040840185811115611bf357600080fd5b845b81811015611c0d578035835260209283019201611bf5565b509195945050505050565b60008060608385031215611c2b57600080fd5b611c358484611ba9565b946040939093013593505050565b8051825260208082015181840160005b600a81101561123557825182529183019190830190600101611c53565b6101c08101611c7f8286611c43565b83516101608301526020909301516101808201526101a00152919050565b6000808284036101a0811215611cb257600080fd5b61016080821215611cc257600080fd5b611cca6119ca565b85358152602087603f880112611cdf57600080fd5b611ce76119f2565b928701928089851115611cf957600080fd5b8289015b85811015611d145780358352918301918301611cfd565b5083830152509094508490604061015f1985011215611d3257600080fd5b611d3a6119ca565b93508235845261018087013581850152505050809150509250929050565b60008060408385031215611d6b57600080fd5b50508035926020909101359150565b600060808284031215611d8c57600080fd5b82601f830112611d9b57600080fd5b604051608081018181106001600160401b0382111715611dbd57611dbd6119b4565b604052806080840185811115611bf357600080fd5b60008060008060008060c08789031215611deb57600080fd5b863595506020870135945060408701356001600160401b03811115611e0f57600080fd5b611e1b89828a01611ad3565b945050606087013592506080870135915060a087013590509295509295509295565b600060208284031215611e4f57600080fd5b81356001600160401b03811115611e6557600080fd5b610dec84828501611a68565b600060408284031215611e8357600080fd5b611e8d8383611ba9565b9392505050565b600060208284031215611ea657600080fd5b5035919050565b600060a08284031215611ebf57600080fd5b82601f830112611ece57600080fd5b60405160a081018181106001600160401b0382111715611ef057611ef06119b4565b6040528060a0840185811115611bf357600080fd5b600060608284031215611f1757600080fd5b82601f830112611f2657600080fd5b604051606081018181106001600160401b0382111715611f4857611f486119b4565b604052806060840185811115611bf357600080fd5b6001600160a01b038116811461174057600080fd5b600060208284031215611f8457600080fd5b8135611e8d81611f5d565b634e487b7160e01b600052601160045260246000fd5b600082821015611fb757611fb7611f8f565b500390565b60005b83811015611fd7578181015183820152602001611fbf565b83811115611fe6576000848401525b50505050565b602081526000825180602084015261200b816040850160208701611fbc565b601f01601f19169190910160400192915050565b60006020828403121561203157600080fd5b5051919050565b634e487b7160e01b600052603260045260246000fd5b60006020828403121561206057600080fd5b81518015158114611e8d57600080fd5b61016081016108228284611c43565b6101a0810161208e8285611c43565b82516101608301526020830151610180830152611e8d565b60808101818360005b60048110156120ce5781518352602092830192909101906001016120af565b50505092915050565b815160009082906020808601845b83811015612101578151855293820193908201906001016120e5565b50929695505050505050565b6000825161211f818460208701611fbc565b9190910192915050565b634e487b7160e01b600052601260045260246000fd5b60008261214e5761214e612129565b500690565b60408101818360005b60028110156120ce57815183526020928301929091019060010161215c565b60006020828403121561218d57600080fd5b8151611e8d81611f5d565b60a08101818360005b60058110156120ce5781518352602092830192909101906001016121a1565b600060ff821660ff8416808210156121da576121da611f8f565b90039392505050565b60608101818360005b60038110156120ce5781518352602092830192909101906001016121ec565b600060ff821660ff81141561222257612222611f8f565b60010192915050565b60008261223a5761223a612129565b50049056fe30644e72e131a029b85045b68181585d2833e84879b9709143e1f593f0000001a2646970667358221220eb6ac6ae11a81afbf35defdb6c5d46eb3ccc06c1ea422e3dd6f151e7c0d3db1964736f6c634300080a0033",
    "linkReferences": {
        "contracts/crypto/Hasher.sol": {
            "PoseidonT3": [
                {
                    "length": 20,
                    "start": 715
                },
                {
                    "length": 20,
                    "start": 5225
                }
            ],
            "PoseidonT4": [
                {
                    "length": 20,
                    "start": 7017
                }
            ],
            "PoseidonT5": [
                {
                    "length": 20,
                    "start": 4708
                }
            ],
            "PoseidonT6": [
                {
                    "length": 20,
                    "start": 6072
                }
            ]
        }
    },
    "deployedLinkReferences": {
        "contracts/crypto/Hasher.sol": {
            "PoseidonT3": [
                {
                    "length": 20,
                    "start": 3590
                }
            ],
            "PoseidonT4": [
                {
                    "length": 20,
                    "start": 5382
                }
            ],
            "PoseidonT5": [
                {
                    "length": 20,
                    "start": 3073
                }
            ],
            "PoseidonT6": [
                {
                    "length": 20,
                    "start": 4437
                }
            ]
        }
    }
}